:100000000C9458010C9402040C9475010C94750125
:100010000C9475010C9475010C9475010C94750188
:100020000C9475010C9475010C9475010C94750178
:100030000C9475010C9475010C9475010C94750168
:100040000C9475010C9475010C9475010C94750158
:100050000C9475010C9475010C9475010C94750148
:100060000C9475010C94750141542B4342430D0AC5
:100070000041542B43495047534D4C4F433D312C85
:10008000310D0A002B53415042523A20312C31009D
:1000900041542B53415042523D302C310D0A004106
:1000A000542B53415042523D322C310D0A004154E1
:1000B0002B53415042523D312C310D0A0041542BFB
:1000C00053415042523D332C312C22505744222C64
:1000D00022696E7465726E6574220D0A0041542B9C
:1000E00053415042523D332C312C2255534552221C
:1000F0002C22696E7465726E6574220D0A0041547B
:100100002B53415042523D332C312C2241504E2230
:100110002C22696E7465726E6574220D0A0041545A
:100120002B53415042523D332C312C22434F4E54DD
:10013000595045222C2247505253220D0A000A42A0
:100140004154544552595B6D565D3D00204C41541D
:1001500049545544453D00205554430A204C4F4EC8
:10016000475449545544453D000D0A002C000D0AE2
:1001700020687474703A2F2F6D6170732E676F6FE3
:10018000676C652E636F6D2F6D6170733F713D00FD
:1001900041542B434E45544C494748543D300D0A79
:1001A00000415426570D0A0041542B4950523D3905
:1001B0003630300D0A0041542B4353434C4B3D30F5
:1001C0000D0A0041542B4353434C4B3D320D0A0062
:1001D00041542B4346554E3D310D0A0041542B43AB
:1001E00046554E3D340D0A0041542B434C49503D79
:1001F000310D0A00220A0D0041542B434D47444162
:100200003D2244454C20414C4C220D0A0041542BC8
:10021000434D47533D220041542B434D47463D310A
:100220000D0A004154480A0D0041542B43464752E1
:10023000493D310A0D0041542B4350494E3D223176
:10024000313131220A0D00415445300A0D0041542C
:100250002B4350494E3F0A0D002B4350494E3A2044
:1002600053494D2050494E002B4350494E3A20529D
:10027000454144590041542B435245473D300A0DF6
:100280000041542B435245473F0A0D002B43524532
:10029000473A20302C35002B435245473A20302C2A
:1002A000310052494E47004F4B0041540A0D0000A7
:1002B00011241FBECFEFD8E0DEBFCDBF11E0A0E01C
:1002C000B1E0EEEBFAE002C005900D92A239B10761
:1002D000D9F711E0A2E9B1E001C01D92AB3AB10734
:1002E000E1F70E940D040C945D050C94000082E07F
:1002F0008093C0001092C5008CE08093C400E1ECB4
:10030000F0E0808188608083808180618083E2EC7E
:10031000F0E080818660808308959091C00095FF11
:10032000FCCF8093C60008958091C00087FFFCCF6A
:100330008091C6000895CF93DF93AC01DC0190E07B
:1003400020E03D91FB01E90FF11D8081381320C0B1
:1003500090E0892F820FFA01E80FF11D3081C92F3B
:10036000D0E031110BC0FB0101900020E9F731977B
:10037000E61BF70BCE17DF0759F40FC0FB01EC0F9C
:10038000FD1F8081882379F33813EDCF9F5FE1CF84
:100390002F5F2035B1F680E001C081E0DF91CF9181
:1003A0000895CF93DF93EC018991882319F00E947F
:1003B0008D01FACFDF91CF910895CF93DF93EC01B8
:1003C000CE01FE012491222331F02196FC0184917B
:1003D0000E948D01F5CFDF91CF910895CF931092B8
:1003E000AA01C6E90E949401282F30E02A30310585
:1003F00079F02D30310561F0E091AA01F0E0EF5B7A
:10040000FE4F80838091AA018F5F8093AA010DC067
:100410008091AA01882349F0E091AA01F0E0EF5B06
:10042000FE4F10821092AA0102C0C150D9F681E09D
:10043000CF910895CF931092A7011092A801109226
:10044000AA01C0E00E949401CF5F8C3211F0C6393E
:10045000C9F70E949401E091A701F0E0EB5FFE4F25
:1004600080839091A7019F5F9093A701CF5F8C320B
:1004700049F4E091A701F0E0EC5FFE4F108210928A
:10048000A70105C0C63928F3F4CFC63980F40E940D
:100490009401E091A801F0E0E75EFE4F8083909127
:1004A000A8019F5F9093A801CF5F8C3271F7E09114
:1004B000A801F0E0E85EFE4F10821092A80105C08E
:1004C0002A303105A9F0C63998F40E949401282FEA
:1004D00030E0E091AA01F0E0EF5BFE4F8083809175
:1004E000AA018F5F8093AA01CF5F2D30310541F7BC
:1004F000E091AA01F0E0E05CFE4F10821092AA01A8
:100500000E94940181E0CF910895CF931092A901A8
:10051000C0E00E949401CF5F823211F0C639C9F762
:100520000E949401E091A901F0E0E35DFE4F808319
:100530009091A9019F5F9093A901CF5F823249F406
:10054000E091A901F0E0E45DFE4F10821092A90154
:1005500007C0C63928F3F4CF0D9749F0C63938F4EF
:100560000E94940190E0CF5F8A309105A9F781E065
:10057000CF910895CF9310929201C0E00E94940110
:10058000CF5F8C3211F0C639C9F70E949401CF5F5A
:100590008C3211F0C639C8F30E949401282F30E044
:1005A000E0919201F0E0E050FF4F80838091920152
:1005B0008F5F80939201CF5F2A30310529F02D3073
:1005C000310511F0C63940F3E0919201F0E0E150BD
:1005D000FF4F10821092920181E0CF9108958823FD
:1005E00061F026E033E14EEA4A95F1F73A95E1F7FA
:1005F0002A95D1F700C08150F2CF0895CF938AEAAF
:1006000092E00E94DD010E94EE01882389F043E020
:1006100050E067EA72E083E991E00E94540563E9E3
:1006200071E081E491E00E949B01C1E0813009F01A
:10063000C0E081E00E94EF02CC2309F387E492E05E
:100640000E94DD0182E00E94EF0281E0CF910895D7
:10065000CF9382E00E94EF028EE492E00E94DD01DF
:100660000E94EE018823A9F34DE050E068E672E0B5
:1006700083E991E00E94540563E971E081E491E02F
:100680000E949B01C82F4FE050E069E572E083E9CA
:1006900091E00E94540563E971E081E491E00E94D9
:1006A0009B01813049F40E94EF0286E392E00E94B0
:1006B000DD0181E00E94EF02C13059F681E0CF9167
:1006C0000895CF93DF93C0E381E00E94EF0280EDB5
:1006D00091E00E94DD018EE10E94EF0281E892E04C
:1006E0000E94DD010E94EE01882309F44AC04BE01C
:1006F00050E067E972E083E991E00E94540563E904
:1007000071E081E491E00E949B01D82F4BE050E022
:100710006CE872E083E991E00E94540563E971E0BE
:1007200081E491E00E949B01813071F1D13061F14F
:1007300081E00E94EF028CED91E00E94DD0181E0FA
:100740000E94EF0283EC91E00E94DD01DEE18CE388
:100750000E94EF02D150D9F78AEA92E00E94DD01AF
:1007600081E00E94EF0286EB91E00E94DD0181E0D2
:100770000E94EF0280ED91E00E94DD018EE10E9477
:10078000EF02C15009F0A0CF81E0DF91CF91089531
:1007900081E00E94EF028EE191E00E94DD0181E0A4
:1007A0000E94EF028EEF90E00E94DD0181E00E9446
:1007B000EF028DED90E00E94DD0181E00E94EF02EA
:1007C0008DEB90E00E94DD0181E00E94EF0281E06C
:1007D000089583B7817F846083BF83B7816083BFBF
:1007E00052985A9AF894E9E6F0E080818D7F8083F0
:1007F00080818E7F8083E89A7894889583B78E7FF6
:1008000083BF08951F920F920FB60F921124E8989C
:100810000F900FBE0F901F9018950E9477018AE0ED
:100820000E94EF020E94FE0282E00E94EF0288EA2C
:1008300091E00E94DD0182E00E94EF0289E292E0F5
:100840000E94DD0182E00E94EF0285E792E00E94B3
:10085000DD0182E00E94EF0280ED91E00E94DD0167
:1008600082E00E94EF0281EA91E00E94DD0183E0D4
:100870000E94EF020E9428030E9461030E94C803A5
:1008800087E192E00E94DD0182E00E94EF0288EFA2
:1008900091E00E94DD0183E00E94EF0288EE91E08A
:1008A0000E94DD0182E00E94EF0280E991E00E9457
:1008B000DD0182E00E94EF0283EC91E00E94DD0105
:1008C00082E00E94EF020E94E9030E94EE01882369
:1008D000B9F245E050E062EA72E083E991E00E94FB
:1008E000540563E971E081E491E00E949B0181304D
:1008F000D9F40E9485028AEA92E00E94DD0181E03B
:100900000E94EF0286EB91E00E94DD0181E00E94EF
:10091000EF0283E292E00E94DD0181E00E94EF029B
:100920000E94C803C3E036C08AEA92E00E94DD015B
:1009300081E00E94EF0286EB91E00E94DD0181E000
:100940000E94EF020E9428030E9461030E94C803D4
:1009500088EE91E00E94DD0182E00E94EF0280E9D2
:1009600090E00E94DD0182E09CC04CE050E064E831
:1009700070E083E991E00E94540563E971E081E44D
:1009800091E00E949B0191E08130E9F4C150E9F0CF
:1009900091111EC085E00E94EF0280E990E00E9464
:1009A000DD0182E00E94EF028EEA90E00E94DD010C
:1009B0008AE00E94EF028FE990E00E94DD010E9430
:1009C000EE018111D2CF90E0E1CF913009F068C003
:1009D00081E00E94EF0288E690E00E94DD010E9423
:1009E000BA0281E00E94EF0281E790E00E94DD01FF
:1009F0000E941A0281E00E94EF0287E192E00E94C9
:100A0000DD0181E00E94EF028DE092E00E94DD01B5
:100A10008DE291E00E94D10184EF91E00E94DD011E
:100A200081E00E94EF0281E491E00E94D10187E51C
:100A300091E00E94DD0185E091E00E94D1018CE40B
:100A400091E00E94DD0189E191E00E94D1018EE3F5
:100A500091E00E94DD0180E091E00E94D1018EE6EC
:100A600091E00E94DD0189E191E00E94D1018CE6D4
:100A700091E00E94DD0185E091E00E94D10189E6CC
:100A800091E00E94DD0181E00E94EF028AE10E9474
:100A90008D0185E00E94EF0280E990E00E94DD0177
:100AA0008AE00E94EF02ECCEFB01DC0102C005905F
:0E0AB0000D9241505040D8F70895F894FFCFB2
:100ABE0031323334353132333435363738393031EB
:100ACE0032333435363738393031323334353637D0
:100ADE0038393031323334353637383930313233C4
:100AEE0034353637383930313233343536373839A4
:100AFE0030313233343536373839303132333435AC
:100B0E00363738393031323334353637383930318B
:100B1E00323334353637383930313233343536377F
:100B2E003839303132333435363738393031323373
:100B3E003435363738393031323334353637383953
:020B4E00300075
:00000001FF
