:1000000010C128C127C126C125C124C123C122C1D5
:1000100021C120C11FC11EC11DC11CC11BC11AC1EC
:1000200019C118C117C141542B43495047534D4C76
:100030004F433D312C310D0A002B53415042523A6F
:1000400020312C310041542B53415042523D302C31
:10005000310D0A0041542B53415042523D322C3154
:100060000D0A0041542B53415042523D312C310D69
:100070000A0041542B53415042523D332C312C2223
:10008000505744222C22696E7465726E6574220D7D
:100090000A0041542B53415042523D332C312C2203
:1000A00055534552222C22696E7465726E65742216
:1000B0000D0A0041542B53415042523D332C312CF8
:1000C0002241504E222C22696E7465726E65742234
:1000D0000D0A0041542B53415042523D332C312CD8
:1000E00022434F4E54595045222C224750525322FE
:1000F0000D0A00204C4154543D00205554430A2021
:100100004C4F4E473D000D0A002C000D0A2068742C
:1001100074703A2F2F6D6170732E676F6F676C6507
:100120002E636F6D2F6D6170733F713D00415426DA
:10013000570D0A0041542B4950523D393630300D8D
:100140000A0041542B4353434C4B3D300D0A0041B0
:10015000542B4353434C4B3D320D0A0041542B4327
:1001600046554E3D310D0A0041542B4346554E3DF8
:10017000340D0A0041542B434C49503D310D0A00C7
:10018000220A0D0041542B434D4744413D22444532
:100190004C20414C4C220D0A0041542B434D4753F7
:1001A0003D220041542B434D47463D310D0A00414D
:1001B00054480A0D0041542B4350494E3D223131E1
:1001C0003131220A0D00415445300A0D0041542BB3
:1001D0004350494E3F0A0D002B4350494E3A20539D
:1001E000494D2050494E002B4350494E3A2052452C
:1001F0004144590041542B435245473F0A0D002BBF
:10020000435245473A20302C35002B435245473A5C
:1002100020302C310052494E47004F4B0041540AC8
:100220000D0011241FBECFEDCDBF10E0A0E6B0E061
:10023000EEE9F7E002C005900D92AC3AB107D9F7AC
:1002400010E0ACEAB0E001C01D92A43CB107E1F7B8
:10025000BAD1A3C2D5CE82E08BB912B88CE089B9ED
:1002600088E18AB986E083B908955D9BFECF8CB999
:1002700008955F9BFECF8CB10895CF93DF93AC01BF
:10028000DC0190E020E03D91FB01E90FF11D808150
:10029000381320C090E0892F820FFA01E80FF11D7A
:1002A0003081C92FD0E031110BC0FB01019000203B
:1002B000E9F73197E61BF70BCE17DF0759F40FC0AC
:1002C000FB01EC0FFD1F8081882379F33813EDCFFC
:1002D0009F5FE1CF2F5F2832B1F680E001C081E05F
:1002E000DF91CF910895CF93DF93EC01899188231B
:1002F00011F0BBDFFBCFDF91CF910895CF93DF9358
:10030000EC01CE01FE012491222329F02196FC016B
:100310008491ABDFF6CFDF91CF9108951092C300A7
:10032000A8DF282F30E02A30310579F02D30310553
:1003300061F0E091C300F0E0ED57FF4F80838091C2
:10034000C3008F5F8093C300EBCF8091C3008823ED
:1003500039F3E091C300F0E0ED57FF4F10821092A7
:10036000C30081E008951092C0001092C100109265
:10037000C3007FDF8C32E9F77CDFE091C000F0E062
:10038000E05AFF4F80839091C0009F5F9093C00020
:100390008C3291F7E091C000F0E0E15AFF4F1082FB
:1003A0001092C00066DFE091C100F0E0E659FF4F17
:1003B00080839091C1009F5F9093C1008C3291F730
:1003C000E091C100F0E0E759FF4F10821092C100A8
:1003D00050DF282F30E0E091C300F0E0ED57FF4FF1
:1003E00080838091C3008F5F8093C3002D303105DF
:1003F00019F02A30310561F7E091C300F0E0EE57C3
:10040000FF4F10821092C30034DF81E008951092F4
:10041000C2002FDF8232E9F72CDFE091C200F0E06A
:10042000EC58FF4F80839091C2009F5F9093C20071
:10043000823291F7E091C200F0E0ED58FF4F108258
:100440001092C20016DF90E08A30910511F00D97EE
:10045000C9F781E00895882361F026E033E14EEA90
:100460004A95F1F73A95E1F72A95D1F700C0815006
:10047000F2CF0895CF938DE192E040DF4FDF8823E4
:1004800079F043E050E06AE172E08CEA90E07CD1E0
:100490006CEA70E083E890E0F0DEC1E0813009F0C2
:1004A000C0E081E0D8DFCC2331F386EC91E026DF99
:1004B00081E0CF910895CF9382E0CDDF8DEC91E084
:1004C0001DDF2CDF8823C1F34DE050E067EE71E0C3
:1004D0008CEA90E059D16CEA70E083E890E0CDDEE0
:1004E000C82F4FE050E068ED71E08CEA90E04CD10D
:1004F0006CEA70E083E890E0C0DE813019F485EBAF
:1005000091E0FCDEC130C1F681E0CF910895CF9338
:1005100088E7A1DF84EF91E0F1DE00DF8823C1F3FB
:100520004BE050E06AE072E08CEA90E02DD16CEA9A
:1005300070E083E890E0A1DEC82F4BE050E06FEF61
:1005400071E08CEA90E020D16CEA70E083E890E002
:1005500094DE8130E9F0C130D9F088E691E0CEDE5A
:1005600081E079DF8FE491E0C9DECCE38CE373DFD7
:10057000C150E1F78DE192E0C1DE81E06CDF82E401
:1005800091E0BCDE81E067DF8CE591E0B7DEC0CFB3
:1005900081E0CF91089581E05EDF83ED90E0AEDEF3
:1005A00081E059DF83EB90E0A9DE81E054DF82E94E
:1005B00090E0A4DE81E04FDF82E790E09FDE81E003
:1005C0004ADF81E0089547DE8A98929A8AE043DF05
:1005D00051DF82E040DF84E391E090DE82E03BDFA8
:1005E0008DE291E08BDE83E036DF65DF90DFD3DFE5
:1005F00084E791E083DE82E02EDFC0E0D0E083EA92
:1006000091E07CDE82E027DF84E891E077DE83E022
:1006100022DF8FE491E072DE82E01DDF829913C059
:10062000219681E018DFC0318EE0D807B9F78DE15F
:1006300092E064DE81E00FDF82E491E05FDE67DF5D
:10064000C0E0D0E0EBCF6ADE8823C9F245E050E09D
:1006500065E172E08CEA90E097D06CEA70E083E8A4
:1006600090E00BDE813091F4D2DE8DE192E046DE47
:1006700081E0F1DE82E491E041DE81E0ECDE8FEAB0
:1006800091E03CDE81E0E7DE13E02AC08DE192E0FC
:1006900035DE81E0E0DE82E491E030DE81E0DBDE29
:1006A0000ADF35DF78DF84E791E028DE82E0D3DE01
:1006B00085E490E023DE82E065C04CE050E069E331
:1006C00070E08CEA90E060D06CEA70E083E890E043
:1006D000D4DD91E08130A1F41150A1F0911114C04A
:1006E00085E490E00BDE82E0B6DE83E690E006DE95
:1006F00085E0B1DE84E590E001DE10DE8111DDCF22
:1007000090E0EACF9130E9F581E0A5DE86E290E065
:10071000F5DD29DE83EA91E0F1DD81E09CDE89E907
:1007200091E0ECDD84E790E0DEDD80E891E0E6DD5D
:1007300081E091DE83E890E0D6DD8AEF90E0DEDDB7
:1007400080E690E0D0DD83EF90E0D8DD8AE690E0AF
:10075000CADD8BE091E0D2DD8AE690E0C4DD89E07D
:1007600091E0CCDD80E690E0BEDD86E091E0C6DD84
:1007700081E071DE8AE179DD85E06DDE85E490E07F
:10078000BDDD8AE068DE3BCFFB01DC0102C00590E5
:0E0790000D9241505040D8F70895F894FFCFD5
:10079E003132333435363738393031323334353609
:1007AE0037383930313233343536373839303132F3
:1007BE0033343531323334353637383930313233EC
:1007CE0034353637383930313233343536373839C7
:0C07DE00303132333435363738393000D2
:00000001FF
