:100000000C944F010C94F6030C946C010C946C014D
:100010000C946C010C946C010C946C010C946C01AC
:100020000C946C010C946C010C946C010C946C019C
:100030000C946C010C946C010C946C010C946C018C
:100040000C946C010C946C010C946C010C946C017C
:100050000C946C010C946C010C946C010C946C016C
:100060000C946C010C946C0141542B434E45545339
:1000700043414E0A0D0041542B4342430D0A0041B7
:10008000542B43495047534D4C4F433D312C310D78
:100090000A002B53415042523A20312C3100415436
:1000A0002B53415042523D302C310D0A0041542B0C
:1000B00053415042523D322C310D0A0041542B53D2
:1000C000415042523D312C310D0A0041542B5341D5
:1000D0005042523D332C312C22505744222C22695D
:1000E0006E7465726E6574220D0A0041542B534183
:1000F0005042523D332C312C2255534552222C2252
:10010000696E7465726E6574220D0A0041542B533A
:10011000415042523D332C312C2241504E222C2250
:10012000696E7465726E6574220D0A0041542B531A
:10013000415042523D332C312C22434F4E545950A2
:1001400045222C2247505253220D0A004E4541525F
:100150004553542043454C4C5320494E464F202D87
:10016000200A000A424154544552595B6D565D3D88
:1001700000204C41545449545544453D00205554A9
:10018000430A204C4F4E475449545544453D000DB9
:100190000A002C000D0A20687474703A2F2F6D61CC
:1001A00070732E676F6F676C652E636F6D2F6D6157
:1001B00070733F713D0041542B434E45544C4947A9
:1001C00048543D300D0A00415426570D0A00415451
:1001D0002B4950523D393630300D0A0041542B43E3
:1001E00053434C4B3D300D0A0041542B4353434C79
:1001F0004B3D320D0A0041542B434C49503D310DCB
:100200000A00220A0D0041542B434D47533D220062
:1002100041542B434D47463D310D0A004154480A95
:100220000D0041542B43464752493D310A0D0041D0
:10023000542B4350494E3D2231313131220A0D00B9
:10024000415445300A0D0041542B4350494E3F0A5A
:100250000D002B4350494E3A2053494D2050494EF2
:10026000002B4350494E3A205245414459004154D5
:100270002B435245473F0A0D002B435245473A2036
:10028000302C32002B435245473A20302C3100525B
:10029000494E47004F4B00202041540A0D001124C5
:1002A0001FBECFEFD8E0DEBFCDBF11E0A0E0B1E0D0
:1002B000E0EDFAE002C005900D92A83CB107D9F735
:1002C00011E0A8ECB1E001C01D92A23EB107E1F738
:1002D0000E9406040C9466050C9400001092C50060
:1002E00083E38093C400E1ECF0E080818860808348
:1002F000808180618083E2ECF0E080818660808391
:1003000008959091C00095FFFCCF8093C60008959A
:100310008091C00087FFFCCF8091C6000895CF93E5
:10032000DF93AC01DC0190E020E03D91FB01E90F9F
:10033000F11D8081381320C090E0892F820FFA01CF
:10034000E80FF11D3081C92FD0E031110BC0FB0146
:1003500001900020E9F73197E61BF70BCE17DF0776
:1003600059F40FC0FB01EC0FFD1F8081882379F346
:100370003813EDCF9F5FE1CF2F5F2832B1F680E0D9
:1003800001C081E0DF91CF910895CF93DF93EC011D
:100390008991882319F00E948101FACFDF91CF91D2
:1003A0000895CF93DF93EC01CE01FE012491222327
:1003B00031F02196FC0184910E948101F5CFDF91FB
:1003C000CF910895CF93DF931092E101C0E0D0E088
:1003D0000E948801282F30E02A30310579F02D3035
:1003E000310561F0E091E101F0E0E056FE4F8083DD
:1003F0008091E1018F5F8093E1010FC08091E10165
:10040000882359F0E091E101F0E0E056FE4F1082C0
:100410001092E10181E090E002C080E090E021963E
:10042000892BB1F28C2F8150DF91CF9108951092DA
:10043000DD011092DE011092E1010E9488018C32F0
:10044000E1F70E948801E091DD01F0E0EB5FFE4FF3
:1004500080839091DD019F5F9093DD018C3289F75D
:10046000E091DD01F0E0EC5FFE4F10821092DD01C3
:100470000E948801E091DE01F0E0E15FFE4F8083A1
:100480009091DE019F5F9093DE018C3289F7E091BD
:10049000DE01F0E0E25FFE4F10821092DE010E946A
:1004A0008801282F30E0E091E101F0E0E056FE4FB6
:1004B00080838091E1018F5F8093E1012D303105D0
:1004C00019F02A30310559F7E091E101F0E0E156E9
:1004D000FE4F10821092E1010E94880181E0089590
:1004E0001092DF010E9488018232E1F70E948801A8
:1004F000E091DF01F0E0E75EFE4F80839091DF0145
:100500009F5F9093DF01823289F7E091DF01F0E095
:10051000E85EFE4F10821092DF010E94880190E099
:100520008A30910511F00D97C1F781E0089510927E
:10053000C8010E9488018C32E1F70E9488018C3248
:10054000E1F70E948801282F30E0E091C801F0E037
:10055000E050FF4F80838091C8018F5F8093C80176
:100560002A30310519F02D30310559F7E091C801D5
:10057000F0E0E150FF4F10821092C80181E0089531
:10058000CF93DF931092E001C3E0DAE00E9488018C
:100590008C32E1F70E948801E091E001F0E0E85D33
:1005A000FE4F80839091E0019F5F9093E0018C3239
:1005B00089F70E948801E091E001F0E0E85DFE4FDC
:1005C00080839091E0019F5F9093E0018C3289F7E6
:1005D0000E948801E091E001F0E0E85DFE4F808339
:1005E0009091E0019F5F9093E0018C3289F70E9427
:1005F0008801E091E001F0E0E85DFE4F808390919A
:10060000E0019F5F9093E0018C3289F7E091E00177
:10061000F0E0E95DFE4FD083C15009F0B7CFE09123
:10062000E001F0E0E95DFE4F10821092E00181E010
:10063000DF91CF910895882359F029E236E940E807
:100640004A95F1F73A95E1F72A95D1F78150F3CF22
:100650000895CF9387E992E00E94D1010E94E201C0
:10066000882389F043E050E064E972E089EC91E08E
:100670000E945D0569EC71E080EA91E00E948F01C3
:10068000C1E0813009F0C0E081E00E941B03CC236F
:1006900009F382E00E941B0380E492E00E94D101F2
:1006A00081E0CF910895CF9382E00E941B0387E4FD
:1006B00092E00E94D1010E94E2018823A9F34DE05B
:1006C00050E061E672E089EC91E00E945D0569EC22
:1006D00071E080EA91E00E948F01C82F4FE050E066
:1006E00062E572E089EC91E00E945D0569EC71E0E1
:1006F00080EA91E00E948F01813039F48FE292E02C
:100700000E94D10181E00E941B03C13069F681E0A3
:10071000CF910895CF9382E00E941B038EE692E072
:100720000E94D1010E94E201882301F14BE050E0D8
:1007300064E872E089EC91E00E945D0569EC71E08B
:1007400080EA91E00E948F01C82F4BE050E069E7FA
:1007500072E089EC91E00E945D0569EC71E080EA4D
:1007600091E00E948F01813029F406C08CE30E9441
:100770001B03D1CFC13079F681E0CF91089581E09C
:100780000E941B038CE291E00E94D10181E00E9453
:100790001B038CE091E00E94D10181E00E941B03C9
:1007A0008BEE90E00E94D10181E00E941B038BEC54
:1007B00090E00E94D10181E00E941B0381E0089536
:1007C00083B7817F846083BF83B7816083BF529882
:1007D0005A9AF894E9E6F0E0808182608083808113
:1007E0008E7F8083E89A7894889508951F920F925F
:1007F0000FB60F9211248F9383B78E7F83BFE89833
:100800008F910F900FBE0F901F9018950E946E0150
:100810008AE00E941B030E94290382E00E941B03BE
:100820008EEC91E00E94D10182E00E941B0382E2E3
:1008300092E00E94D10182E00E941B0387EC91E0CC
:100840000E94D10183E00E941B030E9453030E9477
:100850008A030E94BF0382E00E941B0386EF91E09F
:100860000E94D10182E00E941B038EE990E00E9469
:10087000D10182E00E941B0386EB91E00E94D1012E
:1008800082E00E941B0389EE91E00E94D1018FE07B
:100890000E941B030E94E0030E94E201882361F38F
:1008A00045E050E06FE872E089EC91E00E945D0560
:1008B00069EC71E080EA91E00E948F01813009F0DB
:1008C0004DC00E94700287E992E00E94D10181E050
:1008D0000E941B038CED91E00E94D10181E00E94F7
:1008E0001B038CE192E00E94D10181E00E941B0376
:1008F00088E690E00E94D1010E94C00289E10E9436
:100900001B030E948A030E94BF0382E00E941B0314
:1009100080E192E00E94D10181E00E941B0386E009
:1009200092E00E94D10189E191E00E94C50182E03C
:1009300092E00E94D10181E00E941B038CE491E0CF
:100940000E94D10188E291E00E94C50181E00E94ED
:100950001B038AE10E948101C3E02AC087E992E07B
:100960000E94D10181E00E941B038CED91E00E9466
:10097000D10181E00E941B030E9453030E948A035D
:100980000E94BF036BCF4CE050E062E970E089EC5D
:1009900091E00E945D0569EC71E080EA91E00E94BF
:1009A0008F0191E08130E9F4C150E9F091111EC04E
:1009B00085E00E941B038EE990E00E94D10182E055
:1009C0000E941B038CEB90E00E94D10185E00E9405
:1009D0001B038DEA90E00E94D1010E94E201811187
:1009E000D2CF90E0E1CF913009F065C081E00E9464
:1009F0001B0386E790E00E94D1010E94970281E0EC
:100A00000E941B038FE790E00E94D1010E94170211
:100A100080E192E00E94D10181E00E941B0386E008
:100A200092E00E94D10189E191E00E94C50182E03B
:100A300092E00E94D10181E00E941B0380EA91E0D4
:100A40000E94C5018DE791E00E94D10185E091E00F
:100A50000E94C50181E791E00E94D1018FE091E001
:100A60000E94C50183E691E00E94D10180E091E0FF
:100A70000E94C50184E991E00E94D1018FE091E0DC
:100A80000E94C50182E991E00E94D10185E091E0D8
:100A90000E94C5018FE891E00E94D10181E00E948F
:100AA0001B038AE10E94810185E00E941B038EE9FD
:100AB00090E00E94D1018AE0DDCEFB01DC0102C0A2
:100AC00005900D9241505040D8F70895F894FFCF0B
:100AD00031323334353132333435363738393031D9
:100AE00032333435363738393031323334353637BE
:100AF00038393031323334353132333435363738B2
:100B000039303132333435363738393031323334A5
:100B10003536373839303132333435363738393085
:100B20003132333435363738393031323334353683
:100B3000373839303132333435363738393031326D
:100B40003334353637383930313233343536373857
:100B50003930313233343536373839303132333455
:100B60003536373839303132333435363738393035
:100B70003132333435363738393031323334353633
:100B8000373839303132333435363738393031321D
:080B90003334353637383930B3
:00000001FF
