:1000000017C1F1C22EC12DC12CC12BC12AC129C1DA
:1000100028C127C126C125C124C123C122C121C1B4
:1000200020C11FC11EC141542B43495047534D4C61
:100030004F433D312C310D0A002B53415042523A6F
:1000400020312C310041542B53415042523D302C31
:10005000310D0A0041542B53415042523D322C3154
:100060000D0A0041542B53415042523D312C310D69
:100070000A0041542B53415042523D332C312C2223
:10008000505744222C22696E7465726E6574220D7D
:100090000A0041542B53415042523D332C312C2203
:1000A00055534552222C22696E7465726E65742216
:1000B0000D0A0041542B53415042523D332C312CF8
:1000C0002241504E222C22696E7465726E65742234
:1000D0000D0A0041542B53415042523D332C312CD8
:1000E00022434F4E54595045222C224750525322FE
:1000F0000D0A00204C4154543D00205554430A2021
:100100004C4F4E473D000D0A002C000D0A2068742C
:1001100074703A2F2F6D6170732E676F6F676C6507
:100120002E636F6D2F6D6170733F713D00415426DA
:10013000570D0A0041542B4950523D393630300D8D
:100140000A0041542B4353434C4B3D300D0A0041B0
:10015000542B4353434C4B3D320D0A0041542B4327
:1001600046554E3D310D0A0041542B4346554E3DF8
:10017000340D0A0041542B434C49503D310D0A00C7
:10018000220A0D0041542B434D4744413D22444532
:100190004C20414C4C220D0A0041542B434D4753F7
:1001A0003D220041542B434D47463D310D0A00414D
:1001B00054480A0D0041542B43464752493D310AE9
:1001C0000D0041542B4350494E3D223131313122F3
:1001D0000A0D00415445300A0D0041542B4350494B
:1001E0004E3F0A0D002B4350494E3A2053494D20B3
:1001F00050494E002B4350494E3A205245414459F4
:100200000041542B435245473F0A0D002B435245B2
:10021000473A20302C35002B435245473A20302CAA
:10022000310052494E47004F4B0041540A0D000027
:1002300011241FBECFEDCDBF10E0A0E6B0E0E2EA92
:10024000F7E002C005900D92AC3AB107D9F710E083
:10025000ACEAB0E001C01D92A43CB107E1F7CED1F9
:100260009EC2CECE82E08BB912B88CE089B988E10B
:100270008AB986E083B908955D9BFECF8CB9089555
:100280005F9BFECF8CB10895CF93DF93AC01DC016F
:1002900090E020E03D91FB01E90FF11D80813813D2
:1002A00020C090E0892F820FFA01E80FF11D308104
:1002B000C92FD0E031110BC0FB0101900020E9F7FC
:1002C0003197E61BF70BCE17DF0759F40FC0FB0180
:1002D000EC0FFD1F8081882379F33813EDCF9F5FEA
:1002E000E1CF2F5F2832B1F680E001C081E0DF91DD
:1002F000CF910895CF93DF93EC018991882311F07A
:10030000BBDFFBCFDF91CF910895CF93DF93EC015B
:10031000CE01FE012491222329F02196FC01849133
:10032000ABDFF6CFDF91CF9108951092C300A8DF25
:10033000282F30E02A30310579F02D30310561F079
:10034000E091C300F0E0ED57FF4F80838091C30040
:100350008F5F8093C300EBCF8091C300882339F374
:10036000E091C300F0E0ED57FF4F10821092C30000
:1003700081E008951092C0001092C1001092C30055
:100380007FDF8C32E9F77CDFE091C000F0E0E05ADB
:10039000FF4F80839091C0009F5F9093C0008C328C
:1003A00091F7E091C000F0E0E15AFF4F1082109207
:1003B000C00066DFE091C100F0E0E659FF4F8083A6
:1003C0009091C1009F5F9093C1008C3291F7E091B2
:1003D000C100F0E0E759FF4F10821092C10050DFDA
:1003E000282F30E0E091C300F0E0ED57FF4F80830D
:1003F0008091C3008F5F8093C3002D30310519F0C9
:100400002A30310561F7E091C300F0E0EE57FF4F6D
:1004100010821092C30034DF81E008951092C20070
:100420002FDF8232E9F72CDFE091C200F0E0EC58D8
:10043000FF4F80839091C2009F5F9093C2008232F1
:1004400091F7E091C200F0E0ED58FF4F108210925A
:10045000C20016DF90E08A30910511F00D97C9F7C0
:1004600081E00895882361F026E033E14EEA4A9561
:10047000F1F73A95E1F72A95D1F700C08150F2CF14
:100480000895CF938AE292E040DF4FDF882379F02E
:1004900043E050E067E272E08CEA90E077D16CEAEA
:1004A00070E083E890E0F0DEC1E0813009F0C0E068
:1004B00081E0D8DFCC2331F383ED91E026DF81E0CA
:1004C000CF910895CF9382E0CDDF8AED91E01DDFDB
:1004D0002CDF8823C1F34DE050E064EF71E08CEA3B
:1004E00090E054D16CEA70E083E890E0CDDEC82F54
:1004F0004FE050E065EE71E08CEA90E047D16CEAA5
:1005000070E083E890E0C0DE813029F482EC91E075
:10051000FCDE81E0A7DFC130B1F681E0CF91089524
:10052000CF9384EB9FDF81E092E0EFDEFEDE882355
:10053000E1F04BE050E067E172E08CEA90E026D118
:100540006CEA70E083E890E09FDEC82F4BE050E05B
:100550006CE072E08CEA90E019D16CEA70E083E81C
:1005600090E092DE813079F410C081E07BDF88E694
:1005700091E0CBDECCE38CE375DFC150E1F78CE595
:1005800091E0C3DECECFC13061F681E0CF91089516
:1005900081E068DF83ED90E0B8DE81E063DF83EB2C
:1005A00090E0B3DE81E05EDF82E990E0AEDE81E0E4
:1005B00059DF82E790E0A9DE81E054DF81E0089511
:1005C00085B7806585BF85B7806285BF85B78C7F1D
:1005D00085BF8BB780648BBFF8947894889585B776
:1005E0008F7D85BF08951F920F920FB60F92112431
:1005F0001BBE0F900FBE0F901F90189533DE8AE040
:1006000031DF3FDF82E02EDF84E391E07EDE82E0B7
:1006100029DF85EB91E079DE82E024DF8DE291E055
:1006200074DE83E01FDF4EDF7BDFB2DF84E791E023
:100630006CDE82E017DF85E490E067DE82E012DFA7
:1006400083EA91E062DE82E00DDF84E891E05DDE26
:1006500083E008DF8FE491E058DE82E003DFB0DF63
:1006600064DE882369F345E050E062E272E08CEAE0
:1006700090E08CD06CEA70E083E890E005DE813099
:1006800091F4CCDE8AE292E040DE81E0EBDE82E4AF
:1006900091E03BDE81E0E6DE8FEA91E036DE81E04C
:1006A000E1DEC3E01DC08AE292E02FDE81E0DADE07
:1006B00082E491E02ADE81E0B5CF4CE050E069E3CE
:1006C00070E08CEA90E062D06CEA70E083E890E041
:1006D000DBDD91E08130A1F4C150A1F0911115C092
:1006E00085E490E012DE82E0BDDE83E690E00DDE80
:1006F00085E0B8DE84E590E008DE17DE8111DDCF0D
:1007000090E0EACF913009F03FC081E0ABDE86E2B5
:1007100090E0FBDD2FDE81E0A5DE83EA91E0F5DDF0
:1007200081E0A0DE89E991E0F0DD84E790E0E2DDA0
:1007300080E891E0EADD81E095DE83E890E0DADDB3
:100740008AEF90E0E2DD80E690E0D4DD83EF90E098
:10075000DCDD8AE690E0CEDD8BE091E0D6DD8AE656
:1007600090E0C8DD89E091E0D0DD80E690E0C2DD78
:1007700086E091E0CADD81E075DE8AE17DDD85E01D
:1007800071DE85E490E0C1DD8AE059CFFB01DC0138
:1007900002C005900D9241505040D8F70895F8944A
:0207A000FFCF89
:1007A2003132333435363738393031323334353605
:1007B20037383930313233343536373839303132EF
:1007C20033343531323334353637383930313233E8
:1007D20034353637383930313233343536373839C3
:0C07E200303132333435363738393000CE
:00000001FF
