:10000000F8C0EFC20FC10EC10DC10CC10BC10AC1B6
:1000100009C108C107C106C105C104C103C102C1AC
:1000200001C100C1FFC041542B4342430D0A0041AE
:10003000542B43495047534D4C4F433D312C310DC8
:100040000A002B53415042523A20312C3100415486
:100050002B53415042523D302C310D0A0041542B5C
:1000600053415042523D322C310D0A0041542B5322
:10007000415042523D312C310D0A0041542B534125
:100080005042523D332C312C22505744222C2269AD
:100090006E7465726E6574220D0A0041542B5341D3
:1000A0005042523D332C312C2255534552222C22A2
:1000B000696E7465726E6574220D0A0041542B538B
:1000C000415042523D332C312C2241504E222C22A1
:1000D000696E7465726E6574220D0A0041542B536B
:1000E000415042523D332C312C22434F4E545950F3
:1000F00045222C2247505253220D0A000A424154F5
:10010000543D00204C4154543D00205554430A2096
:100110004C4F4E473D000D0A002C000D0A2068741C
:1001200074703A2F2F6D6170732E676F6F676C65F7
:100130002E636F6D2F6D6170733F713D0041542BC5
:100140004353434C4B3D300D0A0041542B43534322
:100150004C4B3D320D0A0041542B434C49503D312C
:100160000D0A00220A0D0041542B434D47533D22F6
:100170000041542B434D47463D310D0A0041544840
:100180000A0D0041542B4350494E3D22313131314B
:10019000220A0D00415445300A0D0041542B4350B2
:1001A000494E3F0A0D002B4350494E3A2053494DCA
:1001B0002050494E002B4350494E3A20524541446D
:1001C000590041542B435245473F0A0D002B4352DF
:1001D00045473A20302C32002B435245473A2030D5
:1001E0002C310052494E47004F4B00202041540A09
:1001F0000D0011241FBECFEDCDBF10E0A0E6B0E092
:10020000EAEAF7E002C005900D92A03BB107D9F7EA
:1002100010E0A0EBB0E001C01D92A93CB107E1F7EE
:10022000EBD1C1C2EDCE12B883E389B988E18AB9B6
:1002300086E083B908955D9BFECF8CB908955F9BDE
:10024000FECF8CB10895CF93DF93AC01DC0190E039
:1002500020E03D91FB01E90FF11D8081381320C0A2
:1002600090E0892F820FFA01E80FF11D3081C92F2C
:10027000D0E031110BC0FB0101900020E9F731976C
:10028000E61BF70BCE17DF0759F40FC0FB01EC0F8D
:10029000FD1F8081882379F33813EDCF9F5FE1CF75
:1002A0002F5F2832B1F680E001C081E0DF91CF916D
:1002B0000895CF93DF93EC018991882311F0BBDF80
:1002C000FBCFDF91CF910895CF93DF93EC01CE0167
:1002D000FE012491222329F02196FC018491ABDFB9
:1002E000F6CFDF91CF910895CF93DF931092C8009E
:1002F000C0E0D0E0A4DF282F30E02A30310579F0CB
:100300002D30310561F0E091C800F0E0E857FF4F73
:1003100080838091C8008F5F8093C8000FC0809158
:10032000C800882359F0E091C800F0E0E857FF4F7B
:1003300010821092C80081E090E002C080E090E05E
:100340002196892BB9F28C2F8150DF91CF9108959E
:100350001092C5001092C6001092C80070DF8C3257
:10036000E9F76DDFE091C500F0E0EB59FF4F8083C6
:100370009091C5009F5F9093C5008C3291F7E091FA
:10038000C500F0E0EC59FF4F10821092C50057DF16
:10039000E091C600F0E0E159FF4F80839091C600E4
:1003A0009F5F9093C6008C3291F7E091C600F0E019
:1003B000E259FF4F10821092C60041DF282F30E033
:1003C000E091C800F0E0E857FF4F80838091C800BB
:1003D0008F5F8093C8002D30310519F02A30310528
:1003E00061F7E091C800F0E0E957FF4F10821092EA
:1003F000C80025DF81E008951092C70020DF823217
:10040000E9F71DDFE091C700F0E0E758FF4F808378
:100410009091C7009F5F9093C700823291F7E0915F
:10042000C700F0E0E858FF4F10821092C70007DFC6
:1004300090E08A30910511F00D97C9F781E0089599
:100440001092B000FCDE8C32E9F7F9DE8C32E9F76D
:10045000F6DE282F30E0E091B000F0E0E05AFF4FE8
:1004600080838091B0008F5F8093B0002A30310587
:1004700019F02D30310561F7E091B000F0E0E15A5C
:10048000FF4F10821092B00081E00895882359F048
:1004900029E236E940E84A95F1F73A95E1F72A95DD
:1004A000D1F78150F3CF08958BEE91E00DDF1CDF83
:1004B0008823D1F343E050E068EE71E081EB90E0F7
:1004C00069D161EB70E088E890E0BDDE813061F7D2
:1004D00082E0DCDF84E991E0F7DE81E00895CF93EC
:1004E00082E0D4DF8BE991E0EFDEFEDE8823C1F30A
:1004F0004DE050E065EB71E081EB90E04BD161EBBA
:1005000070E088E890E09FDEC82F4FE050E066EA98
:1005100071E081EB90E03ED161EB70E088E890E023
:1005200092DE813029F483E891E0CEDE81E0AEDF17
:10053000C130B1F681E0CF910895CF9382E0A6DF7C
:1005400082EC91E0C1DED0DE8823C1F34BE050E0C5
:1005500068ED71E081EB90E01DD161EB70E088E81F
:1005600090E071DEC82F4BE050E06DEC71E081EB64
:1005700090E010D161EB70E088E890E064DE8130BB
:1005800011F0C130D9F681E0CF91089581E07EDF8E
:100590008CED90E099DE81E079DF8CEB90E094DEE9
:1005A00081E074DF8BE990E08FDE81E06FDF8BE725
:1005B00090E08ADE81E06ADF81E0089585B780659A
:1005C00085BF85B7806285BF85B78C7F85BF8BB7B8
:1005D00080648BBFF8947894889585B78F7D85BFAC
:1005E00008951F920F920FB60F9211241BBE0F9009
:1005F0000FBE0F901F90189516DE8AE047DF54DF7C
:100600006EDF9BDFC3DF82E041DF87E591E05CDEE8
:1006100082E03CDF8EE490E057DE82E037DF8AE460
:1006200091E052DE82E032DFC9DF5EDE8823E9F34B
:1006300045E050E063EE71E081EB90E0ABD061EB20
:1006400070E088E890E0FFDD813091F4D5DE8BEE3C
:1006500091E03ADE81E01ADF8DE391E035DE81E062
:1006600015DF8DE791E030DE81E010DFC3E02BC0C5
:100670008BEE91E029DE81E009DF8DE391E024DE5D
:1006800081E004DF2CDF59DF81DF87E591E01CDEAC
:1006900082E0FCDE8EE490E017DE82E0F7DEC5CF7C
:1006A0004CE050E062E470E081EB90E073D061EBED
:1006B00070E088E890E0C7DD91E08130B1F4C1508E
:1006C000B1F0911117C082E0E1DE8EE490E0FCDD34
:1006D00082E0DCDE8CE690E0F7DD85E0D7DE8DE5BC
:1006E00090E0F2DD01DE8111DBCF90E0E8CF9130C8
:1006F00009F049C081E0CADE86E290E0E5DDA0DED7
:1007000081E0C4DE8FE290E0DFDD22DE81E791E070
:10071000DBDD81E0BBDE87E691E0D6DD89E790E0B6
:10072000C8DD83E691E0D0DD81E0B0DE88E890E0CE
:10073000C0DD8AE091E0C8DD85E690E0BADD83E0C7
:1007400091E0C2DD8FE690E0B4DD8CEF90E0BCDD9F
:1007500080E690E0AEDD8BE191E0B6DD8FE690E0E3
:10076000A8DD89E191E0B0DD85E690E0A2DD86E1DB
:1007700091E0AADD81E08ADE8AE15DDD85E086DE4A
:100780008EE490E0A1DD8AE081DE8AE491E09CDDE8
:1007900081E049CFFB01DC0102C005900D92415080
:0A07A0005040D8F70895F894FFCFF9
:1007AA003132333435313233343536373839303102
:1007BA0032333435363738393031323334353637E7
:1007CA0038393031323334353132333435363738DB
:1007DA0039303132333435363738393031323334CF
:1007EA0035363738393031323334353637383930AF
:00000001FF
