:100000000C9467010C9403040C9484010C948401F7
:100010000C9484010C9484010C9484010C9484014C
:100020000C9484010C9484010C9484010C9484013C
:100030000C9484010C9484010C9484010C9484012C
:100040000C9484010C9484010C9484010C9484011C
:100050000C9484010C9484010C9484010C9484010C
:100060000C9484010C94840141542B4342430D0AA7
:100070000041542B43495047534D4C4F433D312C85
:10008000310D0A002B53415042523A20312C31009D
:1000900041542B53415042523D302C310D0A004106
:1000A000542B53415042523D322C310D0A004154E1
:1000B0002B53415042523D312C310D0A0041542BFB
:1000C00053415042523D332C312C22505744222C64
:1000D00022696E7465726E6574220D0A0041542B9C
:1000E00053415042523D332C312C2255534552221C
:1000F0002C22696E7465726E6574220D0A0041547B
:100100002B53415042523D332C312C2241504E2230
:100110002C22696E7465726E6574220D0A0041545A
:100120002B53415042523D332C312C22434F4E54DD
:10013000595045222C2247505253220D0A000A42A0
:100140004154544552595B6D565D3D00204C41541D
:100150005449545544453D00205554430A204C4FC2
:100160004E475449545544453D000D0A002C000D9E
:100170000A20687474703A2F2F6D6170732E676F48
:100180006F676C652E636F6D2F6D6170733F713D8E
:100190000041542B434E45544C494748543D300D83
:1001A0000A00415426570D0A0041542B4950523D34
:1001B000393630300D0A0041542B4353434C4B3DEC
:1001C000300D0A0041542B4353434C4B3D320D0A32
:1001D0000041542B4346554E3D310D0A0041542BEE
:1001E0004346554E3D340D0A0041542B434C495073
:1001F0003D310D0A00220A0D0041542B434D474466
:10020000413D2244454C20414C4C220D0A004154B2
:100210002B434D47533D220041542B434D47463D10
:10022000310D0A004154480A0D0041542B43464702
:1002300052493D310A0D0041542B4350494E3D2255
:1002400031313131220A0D00415445300A0D00414F
:10025000542B4350494E3F0A0D002B4350494E3A10
:100260002053494D2050494E002B4350494E3A20CF
:10027000524541445900435245473D30002B4352BB
:1002800045473D20312C32002B435245473D20311C
:100290002C300041542B435245473D310A0D00415B
:1002A000542B435245473F0A0D002B435245473AD2
:1002B00020312C35002B435245473A20312C310058
:1002C00052494E47004F4B0041540A0D0000112483
:1002D0001FBECFEFD8E0DEBFCDBF11E0A0E0B1E0A0
:1002E000ECE8FAE002C005900D92A83CB107D9F7FE
:1002F00011E0A8ECB1E001C01D92A23EB107E1F708
:100300000E940E040C9444050C94000082E080933B
:10031000C0001092C5008CE08093C400E1ECF0E0D6
:10032000808188608083808180618083E2ECF0E05E
:1003300080818660808308959091C00095FFFCCFF6
:100340008093C60008958091C00087FFFCCF809104
:10035000C6000895CF93DF93AC01DC0190E020E06C
:100360003D91FB01E90FF11D8081381320C090E021
:10037000892F820FFA01E80FF11D3081C92FD0E0DB
:1003800031110BC0FB0101900020E9F73197E61B0A
:10039000F70BCE17DF0759F40FC0FB01EC0FFD1F61
:1003A0008081882379F33813EDCF9F5FE1CF2F5FF2
:1003B0002832B1F680E001C081E0DF91CF9108954D
:1003C000CF93DF93EC018991882319F00E949C015F
:1003D000FACFDF91CF910895CF93DF93EC01CE0157
:1003E000FE012491222331F02196FC0184910E9488
:1003F0009C01F5CFDF91CF9108951092E1010E9409
:10040000A301282F30E02A30310579F02D30310555
:1004100061F0E091E101F0E0E056FE4F80838091D1
:10042000E1018F5F8093E101EACF8091E1018823B0
:1004300031F3E091E101F0E0E056FE4F10821092BE
:10044000E10181E008951092DD011092DE01109229
:10045000E1010E94A3018C32E1F70E94A301E09127
:10046000DD01F0E0EB5FFE4F80839091DD019F5F47
:100470009093DD018C3289F7E091DD01F0E0EC5FD3
:10048000FE4F10821092DD010E94A301E091DE0177
:10049000F0E0E15FFE4F80839091DE019F5F9093DB
:1004A000DE018C3289F7E091DE01F0E0E25FFE4F81
:1004B00010821092DE010E94A301282F30E0E0910B
:1004C000E101F0E0E056FE4F80838091E1018F5F13
:1004D0008093E1012D30310519F02A30310559F7AB
:1004E000E091E101F0E0E156FE4F10821092E1014F
:1004F0000E94A30181E008951092DF010E94A301F0
:100500008232E1F70E94A301E091DF01F0E0E75EB3
:10051000FE4F80839091DF019F5F9093DF018232D5
:1005200089F7E091DF01F0E0E85EFE4F1082109263
:10053000DF010E94A30190E08A30910511F00D9730
:10054000C1F781E008951092C8010E94A3018C3286
:10055000E1F70E94A3018C32E1F70E94A301282F4A
:1005600030E0E091C801F0E0E050FF4F80838091DF
:10057000C8018F5F8093C8012A30310519F02D30F2
:10058000310559F7E091C801F0E0E150FF4F1082CA
:100590001092C80181E00895882361F026E033E1DC
:1005A0004EEA4A95F1F73A95E1F72A95D1F700C05E
:1005B0008150F2CF0895CF9388EC92E00E94EC0135
:1005C0000E94FD01882389F043E050E065EC72E071
:1005D00089EC91E00E943B0569EC71E080EA91E0D2
:1005E0000E94AA01C1E0813009F0C0E081E00E94D0
:1005F000CC02CC2309F382E00E94CC0288E492E092
:100600000E94EC0181E0CF910895CF9382E00E9497
:10061000CC028FE492E00E94EC010E94FD0188234D
:10062000A9F34DE050E069E672E089EC91E00E94A8
:100630003B0569EC71E080EA91E00E94AA01C82FB5
:100640004FE050E06AE572E089EC91E00E943B05E2
:1006500069EC71E080EA91E00E94AA01813039F4EE
:1006600087E392E00E94EC0181E00E94CC02C1305D
:1006700069F681E0CF9108951F93CF93DF9382E0D5
:100680000E94CC028FE992E00E94EC010E94FD01E1
:10069000882309F46FC04BE050E065EB72E089EC11
:1006A00091E00E943B0569EC71E080EA91E00E94D4
:1006B000AA01182F4BE050E06AEA72E089EC91E061
:1006C0000E943B0569EC71E080EA91E00E94AA017A
:1006D000C1E0813019F0113009F0C0E04BE050E08A
:1006E00068E872E089EC91E00E943B0569EC71E0FA
:1006F00080EA91E00E94AA01813009F4C0E04BE059
:1007000050E06DE772E089EC91E00E943B0569ECF6
:1007100071E080EA91E00E94AA01813011F0C111DC
:100720002BC081E00E94CC028DED91E00E94EC0193
:1007300081E00E94CC0284EC91E00E94EC01CEE1C9
:100740008CE30E94CC02C150D9F788EC92E00E9461
:10075000EC0181E00E94CC0287EB91E00E94EC0169
:1007600081E00E94CC0281ED91E00E94EC018CE3DB
:100770000E94CC0280E001C081E0DF5F811104C0F3
:10078000D43609F07CCF01C081E0DF91CF911F9179
:10079000089581E00E94CC028EE191E00E94EC017C
:1007A00081E00E94CC028EEF90E00E94EC0181E09B
:1007B0000E94CC028DED90E00E94EC0181E00E944D
:1007C000CC028DEB90E00E94EC0181E00E94CC0213
:1007D00081E0089583B7817F846083BF83B78160A0
:1007E00083BF52985A9AF894E9E6F0E080818D7FB1
:1007F000808380818E7F8083E89A7894889583B700
:100800008E7F83BF08951F920F920FB60F9211240F
:10081000E8980F900FBE0F901F9018950E948601C8
:100820008AE00E94CC020E94DB0282E00E94CC029D
:1008300089EA91E00E94EC0182E00E94CC0283E907
:1008400092E00E94EC0182E00E94CC0282EA91E0F8
:100850000E94EC0183E00E94CC020E9405030E94EA
:100860003C030E94C90389EE91E00E94EC0182E002
:100870000E94CC0288E192E00E94EC0182E00E949A
:10088000CC0289EF91E00E94EC0183E00E94CC024F
:1008900081E991E00E94EC0182E00E94CC0284ECAC
:1008A00091E00E94EC0182E00E94CC020E94FD01D6
:1008B000882301F345E050E060EC72E089EC91E0C0
:1008C0000E943B0569EC71E080EA91E00E94AA0178
:1008D0008130C9F40E947C0288EC92E00E94EC0115
:1008E00081E00E94CC0287EB91E00E94EC0181E064
:1008F0000E94CC0284E292E00E94EC0181E00E941E
:10090000CC02C3E033C088EC92E00E94EC0181E0AD
:100910000E94CC0287EB91E00E94EC0181E00E94F2
:10092000CC020E9405030E943C030E94C90389EE89
:1009300091E00E94EC0182E00E94CC0280E990E00C
:1009400094CF4CE050E064E870E089EC91E00E94C4
:100950003B0569EC71E080EA91E00E94AA0191E018
:100960008130E9F4C150E9F091111EC085E00E9488
:10097000CC0280E990E00E94EC0182E00E94CC026F
:100980008EEA90E00E94EC0185E00E94CC028FE9A3
:1009900090E00E94EC010E94FD018111D2CF90E015
:1009A000E1CF913009F065C081E00E94CC0288E679
:1009B00090E00E94EC010E94A30281E00E94CC0220
:1009C00081E790E00E94EC010E94230288E192E01E
:1009D0000E94EC0181E00E94CC028EE092E00E9435
:1009E000EC0189E191E00E94E00185EF91E00E9435
:1009F000EC0181E00E94CC0280EA91E00E94E001DB
:100A000088E591E00E94EC0185E091E00E94E00120
:100A10008CE491E00E94EC018FE091E00E94E00103
:100A20008EE391E00E94EC0180E091E00E94E00101
:100A30008FE691E00E94EC018FE091E00E94E001DE
:100A40008DE691E00E94EC0185E091E00E94E001DA
:100A50008AE691E00E94EC0181E00E94CC028AE1EA
:100A60000E949C0185E00E94CC0280E990E00E94F7
:100A7000EC018AE0FDCEFB01DC0102C005900D9285
:0C0A800041505040D8F70895F894FFCF83
:100A8C00313233343531323334353637383930311D
:100A9C003233343536373839303132333435363702
:100AAC0038393031323334353132333435363738F6
:100ABC0039303132333435363738393031323334EA
:100ACC0035363738393031323334353637383930CA
:100ADC0031323334353637383930313233343536C8
:100AEC0037383930313233343536373839303132B2
:100AFC00333435363738393031323334353637389C
:100B0C003930313233343536373839303132333499
:100B1C003536373839303132333435363738393079
:100B2C003132333435363738393031323334353677
:100B3C003738393031323334353637383930313261
:080B4C003334353637383930F7
:00000001FF
