:1000000000C118C117C116C115C114C113C112C155
:1000100011C110C10FC10EC10DC10CC10BC10AC16C
:1000200009C108C107C141542B43495047534D4CA6
:100030004F433D312C310D0A002B53415042523A6F
:1000400020312C31002B53415042523A20312C3375
:100050002C22302E302E302E30220041542B534192
:100060005042523D302C310D0A0041542B53415027
:1000700042523D322C310D0A0041542B5341504223
:10008000523D312C310D0A0041542B534150425204
:100090003D332C312C22505744222C22696E74653A
:1000A000726E6574220D0A0041542B534150425226
:1000B0003D332C312C2255534552222C22696E742B
:1000C00065726E6574220D0A0041542B53415042F3
:1000D000523D332C312C2241504E222C22696E7419
:1000E00065726E6574220D0A0041542B53415042D3
:1000F000523D332C312C22434F4E54595045222C23
:100100002247505253220D0A00204C4154543D00C6
:10011000205554430A204C4F4E473D000D0A002CF9
:10012000000D0A20687474703A2F2F6D6170732E61
:10013000676F6F676C652E636F6D2F6D6170733FB6
:10014000713D0041542B434C49503D310D0A002272
:100150000A0D0041542B434D47533D222B343800A8
:1001600041542B434D47463D310D0A004154480A46
:100170000D0041542B4350494E3D22313131312243
:100180000A0D00415445300A0D0041542B4350499B
:100190004E3F0A0D002B4350494E3A2053494D2003
:1001A00050494E002B4350494E3A20524541445944
:1001B0000041542B434F50533D3F0A0D0041542BF7
:1001C000435245473F0A0D002B53414252002B43F7
:1001D0005245473A20302C33002B435245473A20B2
:1001E000302C32002B435245473A20302C310052FC
:1001F000494E47004552524F52004F4B0041540A5E
:100200000D0011241FBECFEDCDBF10E0A0E6B0E081
:10021000ECE4F7E002C005900D92AC3AB107D9F7D3
:1002200010E0ACEAB0E001C01D92A03BB107E1F7DD
:100230006AD18AC2E5CE12B883E389B988E18AB966
:1002400086E083B908955D9BFECF8CB908955F9BCE
:10025000FECF8CB10895CF93DF93DC01FC0190E0D9
:1002600020E03191EB01C90FD11D888138131CC0EA
:1002700090E0892F820FED01C80FD11D3881492FE1
:1002800050E0311107C0EB01C40FD51F88818111E7
:100290000BC00FC0EB01C40FD51F8881882399F3D1
:1002A0003813F1CF9F5FE5CF2F5F2832D1F680E082
:1002B00001C081E0DF91CF910895CF93DF93EC01EE
:1002C0008991882311F0BFDFFBCFDF91CF91089593
:1002D000CF93DF93EC01CE01FE012491222329F07C
:1002E0002196FC018491AFDFF6CFDF91CF91089585
:1002F000CF93DF931092AF00C0E0D0E0A8DF282FAB
:1003000030E02A30310579F02D30310561F0E0918F
:10031000AF00F0E0ED57FF4F80838091AF008F5F1B
:100320008093AF000FC08091AF00882359F0E09117
:10033000AF00F0E0ED57FF4F10821092AF0081E068
:1003400090E002C080E090E02196892BB9F28C2FDA
:100350008150DF91CF9108951092AC001092AD00C2
:100360001092AF0074DF8C32E9F771DFE091AC00DE
:10037000F0E0E05AFF4F80839091AC009F5F909334
:10038000AC008C3291F7E091AC00F0E0E15AFF4F05
:1003900010821092AC005BDFE091AD00F0E0E65916
:1003A000FF4F80839091AD009F5F9093AD008C32A2
:1003B00091F7E091AD00F0E0E759FF4F1082109205
:1003C000AD0045DF282F30E0E091AF00F0E0ED57C1
:1003D000FF4F80838091AF008F5F8093AF002D30FF
:1003E000310519F02A30310561F7E091AF00F0E0F6
:1003F000EE57FF4F10821092AF0029DF81E0089581
:100400001092AE0024DF8232E9F721DFE091AE00E6
:10041000F0E0EC58FF4F80839091AE009F5F909387
:10042000AE00823291F7E091AE00F0E0ED58FF4F60
:1004300010821092AE000BDF90E08A30910511F02F
:100440000D97C9F781E008951F93CF93DF93CDB740
:10045000DD27CA50CDBF4CDF8823E9F343E050E0ED
:100460006AEF71E0CE01019666D1BE016F5F7F4FEA
:1004700083E890E0F0DE182F46E050E064EF71E092
:10048000CE01019658D1BE016F5F7F4F83E890E0A7
:10049000E2DE813001F31130F1F681E0C65FCDBFBD
:1004A000DF91CF911F91089522E53BE240E04A950C
:1004B000F1F73A95E1F72A95D1F7C895000008952C
:1004C00022E036E948ED59E05A95F1F74A95E1F70F
:1004D0003A95D1F72A95C1F700C008952BEC3CEE70
:1004E00045E84A95F1F73A95E1F72A95D1F70000EA
:1004F000089529E236E940E84A95F1F73A95E1F79F
:100500002A95D1F70895CF93DF93CDB7DD27C45156
:10051000CDBF91DED5DFC8DF8DEF91E0D9DEE8DE1B
:100520008823C9F343E050E06AEF71E0CE01019601
:1005300002D1BE016F5F7F4F83E890E08CDE813097
:1005400051F7B2DF83E891E0C3DEAEDF8AE891E0E5
:10055000BFDECEDE8823C9F3CCDF4DE050E064EA95
:1005600071E0CE010196E7D0BE016F5F7F4F83E857
:1005700090E071DE182F4FE050E065E971E0CE01A8
:100580000196D9D0BE016F5F7F4F83E890E063DEB4
:10059000813019F482E791E09BDE1130B1F684DFFF
:1005A0008DEB91E095DEA4DE8823C9F34BE050E0AB
:1005B00064EE71E0CE010196BED0BE016F5F7F4F49
:1005C00083E890E048DE11E0813009F010E04BE074
:1005D00050E069ED71E0CE010196ADD0BE016F5FD4
:1005E0007F4F83E890E037DE813009F411E04BE083
:1005F00050E06EEC71E0CE0101969DD0BE016F5FC0
:100600007F4F83E890E027DE813011F0112339F22B
:100610004BDF83E491E05CDE6CDF89EE90E058DE36
:1006200068DF89EC90E054DE64DF88EA90E050DE19
:1006300060DF88E890E04CDE37DF5ADE8823E9F39C
:1006400045E050E06FEE71E0CE01019674D0BE013E
:100650006F5F7F4F83E890E0FEDDD2DE4ADF8CE6FD
:1006600091E036DE13E020DF89E790E031DEECDE5A
:1006700035DF8AE690E02CDE3BDE8823E9F046E1B8
:1006800050E065E470E0CE01019655D0BE016F5F89
:100690007F4F83E890E0DFDD4CE050E069E370E0FD
:1006A000CE01019648D0BE016F5F7F4F83E890E096
:1006B000D2DD91E0813009F090E0115011F09923E2
:1006C00091F2F2DE86E290E003DE46DE80E691E023
:1006D000FFDD0FDF83E591E0FBDD84E790E0EDDDFA
:1006E0008FE491E0F5DD05DF83E890E0E6DD80E171
:1006F00091E0EEDD80E690E0E0DD89E091E0E8DD8C
:100700008AE690E0DADD81E291E0E2DD8AE690E0DF
:10071000D4DD8FE191E0DCDD80E690E0CEDD8CE1A0
:1007200091E0D6DDE6DE8AE18EDDD8DE8BE590E075
:10073000CFDD8ADE81CFFB01DC0102C005900D9286
:0C07400041505040D8F70895F894FFCFC6
:10074C00313233343536373839303132333435365B
:10075C003738393031323334353637383930313245
:10076C00333435313233343536373839303132333E
:10077C003435363738393031323334353637383919
:0C078C0030313233343536373839300024
:00000001FF
