:100000000AC1E7C221C120C11FC11EC11DC11CC13F
:100010001BC11AC119C118C117C116C115C114C11C
:1000200013C112C111C141542B43495047534D4C88
:100030004F433D312C310D0A002B53415042523A6F
:1000400020312C310041542B53415042523D302C31
:10005000310D0A0041542B53415042523D322C3154
:100060000D0A0041542B53415042523D312C310D69
:100070000A0041542B53415042523D332C312C2223
:10008000505744222C22696E7465726E6574220D7D
:100090000A0041542B53415042523D332C312C2203
:1000A00055534552222C22696E7465726E65742216
:1000B0000D0A0041542B53415042523D332C312CF8
:1000C0002241504E222C22696E7465726E65742234
:1000D0000D0A0041542B53415042523D332C312CD8
:1000E00022434F4E54595045222C224750525322FE
:1000F0000D0A00204C4154543D00205554430A2021
:100100004C4F4E473D000D0A002C000D0A2068742C
:1001100074703A2F2F6D6170732E676F6F676C6507
:100120002E636F6D2F6D6170733F713D0041542BD5
:10013000434E45544C494748543D300D0A00415404
:1001400026570D0A0041542B4950523D3936303064
:100150000D0A0041542B4353434C4B3D300D0A00D4
:1001600041542B4353434C4B3D320D0A0041542B19
:10017000434C49503D310D0A00220A0D0041542BD9
:10018000434D47533D220041542B434D47463D319B
:100190000D0A004154480A0D0041542B4346475272
:1001A000493D310A0D0041542B4350494E3D223107
:1001B000313131220A0D00415445300A0D004154BD
:1001C0002B4350494E3F0A0D002B4350494E3A20D5
:1001D00053494D2050494E002B4350494E3A20522E
:1001E000454144590041542B435245473F0A0D00B5
:1001F0002B435245473A20302C32002B435245477F
:100200003A20302C310052494E47004F4B002020FD
:1002100041540A0D000011241FBECFEDCDBF10E0E8
:10022000A0E6B0E0EEE8F7E002C005900D92AC3A2F
:10023000B107D9F710E0ACEAB0E001C01D92A43CD0
:10024000B107E1F7D1D1A1C2DBCE12B883E389B9FE
:1002500088E18AB986E083B908955D9BFECF8CB9A9
:1002600008955F9BFECF8CB10895CF93DF93AC01CF
:10027000DC0190E020E03D91FB01E90FF11D808160
:10028000381320C090E0892F820FFA01E80FF11D8A
:100290003081C92FD0E031110BC0FB01019000204B
:1002A000E9F73197E61BF70BCE17DF0759F40FC0BC
:1002B000FB01EC0FFD1F8081882379F33813EDCF0C
:1002C0009F5FE1CF2F5F2832B1F680E001C081E06F
:1002D000DF91CF910895CF93DF93EC01899188232B
:1002E00011F0BBDFFBCFDF91CF910895CF93DF9368
:1002F000EC01CE01FE012491222329F02196FC017C
:100300008491ABDFF6CFDF91CF910895CF93DF9348
:100310001092C300C0E0D0E0A4DF282F30E02A30E4
:10032000310579F02D30310561F0E091C300F0E046
:10033000ED57FF4F80838091C3008F5F8093C30090
:100340000FC08091C300882359F0E091C300F0E012
:10035000ED57FF4F10821092C30081E090E002C081
:1003600080E090E02196892BB9F28C2F8150DF91AB
:10037000CF9108951092C0001092C1001092C30056
:1003800070DF8C32E9F76DDFE091C000F0E0E05AF9
:10039000FF4F80839091C0009F5F9093C0008C328C
:1003A00091F7E091C000F0E0E15AFF4F1082109207
:1003B000C00057DFE091C100F0E0E659FF4F8083B5
:1003C0009091C1009F5F9093C1008C3291F7E091B2
:1003D000C100F0E0E759FF4F10821092C10041DFE9
:1003E000282F30E0E091C300F0E0ED57FF4F80830D
:1003F0008091C3008F5F8093C3002D30310519F0C9
:100400002A30310561F7E091C300F0E0EE57FF4F6D
:1004100010821092C30025DF81E008951092C2007F
:1004200020DF8232E9F71DDFE091C200F0E0EC58F6
:10043000FF4F80839091C2009F5F9093C2008232F1
:1004400091F7E091C200F0E0ED58FF4F108210925A
:10045000C20007DF90E08A30910511F00D97C9F7CF
:1004600081E00895882359F029E236E940E84A9569
:10047000F1F73A95E1F72A95D1F78150F3CF089536
:10048000CF938EE092E032DF41DF882379F043E0C2
:1004900050E06BE072E08CEA90E06ED16CEA70E0C4
:1004A00083E890E0E2DEC1E0813009F0C0E081E065
:1004B000D9DFCC2331F382E0D5DF87EB91E016DF83
:1004C00081E0CF910895CF9382E0CCDF8EEB91E075
:1004D0000DDF1CDF8823C1F34DE050E068ED71E0D3
:1004E0008CEA90E049D16CEA70E083E890E0BDDEF0
:1004F000C82F4FE050E069EC71E08CEA90E03CD10D
:100500006CEA70E083E890E0B0DE813029F486EA9E
:1005100091E0ECDE81E0A6DFC130B1F681E0CF9161
:100520000895CF9382E09EDF85EE91E0DFDEEEDE80
:100530008823E1F04BE050E06BEF71E08CEA90E053
:100540001BD16CEA70E083E890E08FDEC82F4BE0AF
:1005500050E060EF71E08CEA90E00ED16CEA70E060
:1005600083E890E082DE813021F405C08CE37ADFFD
:10057000D9CFC130B9F681E0CF91089581E072DF23
:1005800083ED90E0B3DE81E06DDF83EB90E0AEDEE3
:1005900081E068DF82E990E0A9DE81E063DF82E745
:1005A00090E0A4DE81E05EDF81E0089585B780659C
:1005B00085BF85B7806285BF85B78C7F85BF8BB7C8
:1005C00080648BBFF8947894889585B78F7D85BFBC
:1005D00008951F920F920FB60F9211241BBE0F9019
:1005E0000FBE0F901F90189530DE8AE03BDF48DF8A
:1005F00082E038DF85E491E079DE82E033DF89E96B
:1006000091E074DE82E02EDF8EE391E06FDE83E026
:1006100029DF59DF86DFB2DF82E024DF8DE691E05B
:1006200065DE82E01FDF85E490E060DE82E01ADFB5
:100630008DE291E05BDE82E015DF80E691E056DE40
:1006400082E010DFB3DF62DE882391F345E050E003
:1006500066E072E08CEA90E08FD06CEA70E083E8AC
:1006600090E003DE813091F4D9DE8EE092E03EDE50
:1006700081E0F8DE83E591E039DE81E0F3DE83E9B5
:1006800091E034DE81E0EEDEC3E021C08EE092E056
:100690002DDE81E0E7DE83E591E028DE81E0E2DE29
:1006A00012DF3FDF6BDFBACF4CE050E069E370E070
:1006B0008CEA90E061D06CEA70E083E890E0D5DDF0
:1006C00091E08130B1F4C150B1F0911116C082E0D7
:1006D000C9DE85E490E00ADE82E0C4DE83E690E0D5
:1006E00005DE85E0BFDE84E590E000DE0FDE8111EF
:1006F000DBCF90E0E8CF9130E9F581E0B3DE86E230
:1007000090E0F4DD37DE87E891E0F0DD81E0AADEFD
:100710008DE791E0EBDD84E790E0DDDD89E791E0B6
:10072000E5DD81E09FDE83E890E0D5DD8AEF90E0B3
:10073000DDDD80E690E0CFDD83EF90E0D7DD8AE677
:1007400090E0C9DD8BE091E0D1DD8AE690E0C3DD89
:1007500089E091E0CBDD80E690E0BDDD86E091E0D0
:10076000C5DD81E07FDE8AE178DD85E07BDE85E442
:1007700090E0BCDD8AE05BCFFB01DC0102C00590AC
:0E0780000D9241505040D8F70895F894FFCFE5
:10078E003132333435363738393031323334353619
:10079E003738393031323334353637383930313203
:1007AE0033343531323334353637383930313233FC
:1007BE0034353637383930313233343536373839D7
:0C07CE00303132333435363738393000E2
:00000001FF
