:100000000C942C010C944F030C9449010C9449015D
:100010000C9449010C9449010C9449010C94490138
:100020000C9449010C9449010C9449010C94490128
:100030000C9449010C9449010C9449010C94490118
:100040000C9449010C9449010C9449010C94490108
:100050000C9449010C9449010C9449010C944901F8
:100060000C9449010C94490141542B434950475386
:100070004D4C4F433D312C310D0A002B5341504222
:10008000523A20312C310041542B53415042523DC1
:10009000302C310D0A0041542B53415042523D3215
:1000A0002C310D0A0041542B53415042523D312C0A
:1000B000310D0A0041542B53415042523D332C31F3
:1000C0002C22505744222C22696E7465726E65741E
:1000D000220D0A0041542B53415042523D332C31E2
:1000E0002C2255534552222C22696E7465726E651E
:1000F00074220D0A0041542B53415042523D332C7F
:10010000312C2241504E222C22696E7465726E652C
:1001100074220D0A0041542B53415042523D332C5E
:10012000312C22434F4E54595045222C22475052D5
:1001300053220D0A00204C4154543D002055544395
:100140000A204C4F4E473D000D0A002C000D0A209E
:10015000687474703A2F2F6D6170732E676F6F67BC
:100160006C652E636F6D2F6D6170733F713D004143
:10017000542B434E45544C494748543D300D0A00DA
:10018000415426570D0A0041542B4950523D3936EF
:1001900030300D0A0041542B4353434C4B3D300D3E
:1001A0000A0041542B4353434C4B3D320D0A00414E
:1001B000542B434C49503D310D0A00220A0D004199
:1001C000542B434D47533D220041542B434D47464A
:1001D0003D310D0A004154480A0D0041542B43465D
:1001E0004752493D310A0D0041542B4350494E3D81
:1001F0002231313131220A0D00415445300A0D00BF
:1002000041542B4350494E3F0A0D002B4350494E59
:100210003A2053494D2050494E002B4350494E3A05
:100220002052454144590041542B435245473F0A0F
:100230000D002B435245473A20302C32002B4352BD
:1002400045473A20302C310052494E47004F4B0071
:10025000202041540A0D000011241FBECFEFD8E02A
:10026000DEBFCDBF11E0A0E0B1E0EEE1F9E002C0F9
:1002700005900D92AC34B107D9F711E0ACE4B1E0D0
:1002800001C01D92A436B107E1F70E945A030C94F5
:100290008D040C9400001092C50083E38093C40089
:1002A000E1ECF0E0808188608083808180618083E0
:1002B000E2ECF0E080818660808308959091C00038
:1002C00095FFFCCF8093C60008958091C00087FF02
:1002D000FCCF8091C6000895CF93DF93AC01DC0181
:1002E00090E020E03D91FB01E90FF11D8081381382
:1002F00020C090E0892F820FFA01E80FF11D3081B4
:10030000C92FD0E031110BC0FB0101900020E9F7AB
:100310003197E61BF70BCE17DF0759F40FC0FB012F
:10032000EC0FFD1F8081882379F33813EDCF9F5F99
:10033000E1CF2F5F2832B1F680E001C081E0DF918C
:10034000CF910895CF93DF93EC018991882319F021
:100350000E945E01FACFDF91CF910895CF93DF9392
:10036000EC01CE01FE012491222331F02196FC0103
:1003700084910E945E01F5CFDF91CF910895CF93D4
:10038000DF9310926301C0E0D0E00E946501282F46
:1003900030E02A30310579F02D30310561F0E091FF
:1003A0006301F0E0ED5DFE4F8083809163018F5F1C
:1003B000809363010FC080916301882359F0E0911D
:1003C0006301F0E0ED5DFE4F10821092630181E069
:1003D00090E002C080E090E02196892BB1F28C2F52
:1003E0008150DF91CF9108951092600110926101C8
:1003F000109263010E9465018C32E1F70E94650151
:10040000E0916001F0E0E050FF4F80839091600147
:100410009F5F909360018C3289F7E0916001F0E07A
:10042000E150FF4F1082109260010E946501E0913F
:100430006101F0E0E65FFE4F8083909161019F5F74
:10044000909361018C3289F7E0916101F0E0E75F00
:10045000FE4F1082109261010E946501282F30E04A
:10046000E0916301F0E0ED5DFE4F808380916301D8
:100470008F5F809363012D30310519F02A303105EB
:1004800059F7E0916301F0E0EE5DFE4F10821092AB
:1004900063010E94650181E00895109262010E944B
:1004A00065018232E1F70E946501E0916201F0E0AE
:1004B000EC5EFE4F8083909162019F5F909362019A
:1004C000823289F7E0916201F0E0ED5EFE4F10822A
:1004D000109262010E94650190E08A30910511F04E
:1004E0000D97C1F781E00895882359F029E236E994
:1004F00040E84A95F1F73A95E1F72A95D1F781500E
:10050000F3CF0895CF9380E592E00E94AE010E9460
:10051000BF01882389F043E050E06DE472E08CE491
:1005200091E00E9484046CE471E083E291E00E9417
:100530006C01C1E0813009F0C0E081E00E947402EA
:10054000CC2309F382E00E94740289EF91E00E94BB
:10055000AE0181E0CF910895CF9382E00E947402B2
:1005600080E092E00E94AE010E94BF018823A9F3BF
:100570004DE050E06AE172E08CE491E00E94840476
:100580006CE471E083E291E00E946C01C82F4FE0BF
:1005900050E06BE072E08CE491E00E9484046CE433
:1005A00071E083E291E00E946C01813039F488EEC1
:1005B00091E00E94AE0181E00E947402C13069F6B0
:1005C00081E0CF910895CF9382E00E94740287E288
:1005D00092E00E94AE010E94BF01882301F14BE02E
:1005E00050E06DE372E08CE491E00E9484046CE4DE
:1005F00071E083E291E00E946C01C82F4BE050E073
:1006000062E372E08CE491E00E9484046CE471E0A7
:1006100083E291E00E946C01813029F406C08CE3F2
:100620000E947402D1CFC13079F681E0CF91089554
:1006300081E00E94740285E191E00E94AE0181E0B8
:100640000E94740285EF90E00E94AE0181E00E945A
:10065000740284ED90E00E94AE0181E00E94740279
:1006600084EB90E00E94AE0181E00E94740281E080
:10067000089583B7817F846083BF83B7816083BF20
:1006800052985A9AE9E6F0E0808181608083E89A86
:10069000F8947894889583B78E7F83BF08951F92CE
:1006A0000F920FB60F921124E8980F900FBE0F9083
:1006B0001F9018950E944B018AE00E9474020E94CC
:1006C000820287E891E00E94AE0182E00E947402FB
:1006D0008BED91E00E94AE0182E00E94740280E8FE
:1006E00091E00E94AE0183E00E9474020E94AC027D
:1006F0000E94E3020E94180382E00E9474028FEAC3
:1007000091E00E94AE0182E00E94740287E890E0CE
:100710000E94AE0182E00E9474028FE691E00E9486
:10072000AE0182E00E94740282EA91E00E94AE0172
:1007300082E00E9474020E9439030E94BF01882354
:10074000E1F345E050E068E472E08CE491E00E945F
:1007500084046CE471E083E291E00E946C018130DA
:10076000C9F40E944D0280E592E00E94AE0181E052
:100770000E94740285E991E00E94AE0181E00E942E
:10078000740285ED91E00E94AE0181E00E94740246
:10079000C3E03FC080E592E00E94AE0181E00E948C
:1007A000740285E991E00E94AE0181E00E9474022A
:1007B0000E94AC020E94E3020E9418038FEA91E0BB
:1007C0000E94AE0182E00E94740287E890E00E94DD
:1007D000AE0182E00E9474028BED91E00E94AE01B6
:1007E00082E00E947402A9CF4CE050E06BE770E019
:1007F0008CE491E00E9484046CE471E083E291E077
:100800000E946C0191E08130E9F4C150E9F091114E
:100810001EC082E00E94740287E890E00E94AE0150
:1008200082E00E94740285EA90E00E94AE0185E0B9
:100830000E94740286E990E00E94AE010E94BF010E
:100840008111D2CF90E0E1CF913009F054C081E026
:100850000E94740288E690E00E94AE010E94F401BA
:1008600089EC91E00E94AE0181E00E9474028FEB5E
:1008700091E00E94AE0184E191E00E94A2018BEB25
:1008800091E00E94AE0181E00E94740283E291E057
:100890000E94A2018CE391E00E94AE0180E091E011
:1008A0000E94A20185E391E00E94AE018AE091E0FE
:1008B0000E94A2018DE491E00E94AE018AE091E0E5
:1008C0000E94A2018BE491E00E94AE0180E091E0E1
:1008D0000E94A20188E491E00E94AE0181E00E94A2
:1008E00074028AE10E945E0185E00E94740287E83A
:1008F00090E00E94AE018AE00E94740282EA91E0D8
:100900000E94AE0181E015CFFB01DC0102C0059021
:0E0910000D9241505040D8F70895F894FFCF53
:10091E003132333435363738393031323334353687
:10092E003738393031323334353637383930313271
:10093E00333435313233343536373839303132336A
:10094E003435363738393031323334353637383945
:0C095E0030313233343536373839300050
:00000001FF
