:100000000C9458010C94C3030C9475010C94750165
:100010000C9475010C9475010C9475010C94750188
:100020000C9475010C9475010C9475010C94750178
:100030000C9475010C9475010C9475010C94750168
:100040000C9475010C9475010C9475010C94750158
:100050000C9475010C9475010C9475010C94750148
:100060000C9475010C94750141542B4342430D0AC5
:100070000041542B43495047534D4C4F433D312C85
:10008000310D0A002B53415042523A20312C31009D
:1000900041542B53415042523D302C310D0A004106
:1000A000542B53415042523D322C310D0A004154E1
:1000B0002B53415042523D312C310D0A0041542BFB
:1000C00053415042523D332C312C22505744222C64
:1000D00022696E7465726E6574220D0A0041542B9C
:1000E00053415042523D332C312C2255534552221C
:1000F0002C22696E7465726E6574220D0A0041547B
:100100002B53415042523D332C312C2241504E2230
:100110002C22696E7465726E6574220D0A0041545A
:100120002B53415042523D332C312C22434F4E54DD
:10013000595045222C2247505253220D0A000A42A0
:100140004154544552595B6D565D3D00204C41541D
:100150005449545544453D00205554430A204C4FC2
:100160004E475449545544453D000D0A002C000D9E
:100170000A20687474703A2F2F6D6170732E676F48
:100180006F676C652E636F6D2F6D6170733F713D8E
:100190000041542B434E45544C494748543D300D83
:1001A0000A00415426570D0A0041542B4950523D34
:1001B000393630300D0A0041542B4353434C4B3DEC
:1001C000300D0A0041542B4353434C4B3D320D0A32
:1001D0000041542B4346554E3D310D0A0041542BEE
:1001E0004346554E3D340D0A0041542B434C495073
:1001F0003D310D0A00220A0D0041542B434D474466
:10020000413D2244454C20414C4C220D0A004154B2
:100210002B434D47533D220041542B434D47463D10
:10022000310D0A004154480A0D0041542B43464702
:1002300052493D310A0D0041542B4350494E3D2255
:1002400031313131220A0D00415445300A0D00414F
:10025000542B4350494E3F0A0D002B4350494E3A10
:100260002053494D2050494E002B4350494E3A20CF
:1002700052454144590041542B435245473D300AB1
:100280000D0041542B435245473F0A0D002B43526A
:1002900045473A20302C35002B435245473A203011
:1002A0002C310052494E47004F4B0041540A0D007B
:1002B00011241FBECFEFD8E0DEBFCDBF11E0A0E01C
:1002C000B1E0E0E7FAE002C005900D92A035B10779
:1002D000D9F711E0A0E5B1E001C01D92A936B10740
:1002E000E1F70E94CE030C9436050C94000082E0E6
:1002F0008093C0001092C5008CE08093C400E1ECB4
:10030000F0E0808188608083808180618083E2EC7E
:10031000F0E080818660808308959091C00095FF11
:10032000FCCF8093C60008958091C00087FFFCCF6A
:100330008091C6000895CF93DF93AC01DC0190E07B
:1003400020E03D91FB01E90FF11D8081381320C0B1
:1003500090E0892F820FFA01E80FF11D3081C92F3B
:10036000D0E031110BC0FB0101900020E9F731977B
:10037000E61BF70BCE17DF0759F40FC0FB01EC0F9C
:10038000FD1F8081882379F33813EDCF9F5FE1CF84
:100390002F5F2832B1F680E001C081E0DF91CF917C
:1003A0000895CF93DF93EC018991882319F00E947F
:1003B0008D01FACFDF91CF910895CF93DF93EC01B8
:1003C000CE01FE012491222331F02196FC0184917B
:1003D0000E948D01F5CFDF91CF91089510926801B1
:1003E0000E949401282F30E02A30310579F02D3019
:1003F000310561F0E0916801F0E0E85DFE4F808337
:10040000809168018F5F80936801EACF80916801D5
:10041000882331F3E0916801F0E0E85DFE4F10823F
:100420001092680181E008951092650110926601B2
:10043000109268010E9494018C32E1F70E949401AD
:10044000E0916501F0E0EB5FFE4F808390916501E4
:100450009F5F909365018C3289F7E0916501F0E030
:10046000EC5FFE4F1082109265010E949401E091B2
:100470006601F0E0E15FFE4F8083909166019F5F2F
:10048000909366018C3289F7E0916601F0E0E25FBB
:10049000FE4F1082109266010E949401282F30E0D6
:1004A000E0916801F0E0E85DFE4F80838091680193
:1004B0008F5F809368012D30310519F02A303105A6
:1004C00059F7E0916801F0E0E95DFE4F108210926B
:1004D00068010E94940181E00895109267010E94D2
:1004E00094018232E1F70E949401E0916701F0E00B
:1004F000E75EFE4F8083909167019F5F9093670155
:10050000823289F7E0916701F0E0E85EFE4F1082E9
:10051000109267010E94940190E08A30910511F0D9
:100520000D97C1F781E00895109250010E94940147
:100530008C32E1F70E9494018C32E1F70E94940121
:10054000282F30E0E0915001F0E0E050FF4F808331
:10055000809150018F5F809350012A30310519F04E
:100560002D30310559F7E0915001F0E0E150FF4F97
:1005700010821092500181E00895882361F026E0F6
:1005800033E14EEA4A95F1F73A95E1F72A95D1F72A
:1005900000C08150F2CF08958BEA92E00E94DD0105
:1005A0000E94EE018823C1F343E050E068EA72E064
:1005B00081E591E00E942D0561E571E088E291E01E
:1005C0000E949B01813041F70E94BD0288E492E0C5
:1005D0000E94DD0182E00E94BD0281E00895CF9378
:1005E00082E00E94BD028FE492E00E94DD010E9441
:1005F000EE018823A9F34DE050E069E672E081E561
:1006000091E00E942D0561E571E088E291E00E9491
:100610009B01C82F4FE050E06AE572E081E591E070
:100620000E942D0561E571E088E291E00E949B0146
:10063000813039F487E392E00E94DD0181E00E947D
:10064000BD02C13069F681E0CF910895CF93DF9369
:1006500084E00E94BD0281ED91E00E94DD018CE307
:100660000E94BD0282E892E00E94DD010E94EE013C
:10067000882309F440C04BE050E068E972E081E56E
:1006800091E00E942D0561E571E088E291E00E9411
:100690009B01C82F4BE050E06DE872E081E591E0EE
:1006A0000E942D0561E571E088E291E00E949B01C6
:1006B000813019F181E0C13009F10E94BD028DED58
:1006C00091E00E94DD0181E00E94BD0284EC91E096
:1006D0000E94DD01CEE18CE30E94BD02C150D9F73A
:1006E0008BEA92E00E94DD0181E00E94BD0287EB6F
:1006F00091E00E94DD0180E001C081E0DF5F8111B7
:1007000004C0D83109F0A4CF01C081E0DF91CF91BE
:10071000089583E00E94BD028EE191E00E94DD0118
:1007200081E00E94BD028EEF90E00E94DD0181E039
:100730000E94BD028DED90E00E94DD0181E00E94EB
:10074000BD028DEB90E00E94DD0181E00E94BD02C0
:1007500081E0089583B7817F846083BF83B7816020
:1007600083BF52985A9AF894E9E6F0E080818D7F31
:10077000808380818E7F8083E89A7894889583B780
:100780008E7F83BF08951F920F920FB60F92112490
:10079000E8980F900FBE0F901F9018950E94770158
:1007A00052985A9A8AE00E94BD020E94CC0282E0CE
:1007B0000E94BD0289EA91E00E94DD0182E00E9470
:1007C000BD028AE292E00E94DD0182E00E94BD0249
:1007D00086E792E00E94DD0182E00E94BD0282EA8B
:1007E00091E00E94DD0183E00E94BD020E94EF02C1
:1007F0000E9426030E948903C0E0D0E088E192E0D5
:100800000E94DD0182E00E94BD0289EF91E00E941A
:10081000DD0184E00E94BD0289EE91E00E94DD01CD
:1008200082E00E94BD0280E990E00E94DD0185E047
:100830000E94BD0281E991E00E94DD0182E00E94F8
:10084000BD0284EC91E00E94DD0182E00E94BD02C5
:100850004A9B22C0219681E00E94BD02C83087E0F9
:10086000D807B1F78BEA92E00E94DD0181E00E9497
:10087000BD0287EB91E00E94DD010E94260381E02A
:100880000E94BD0284EC91E00E94DD0182E00E94A2
:10089000BD02C0E0D0E0DCCF0E94EE018823E9F188
:1008A00045E050E063EA72E081E591E00E942D05A9
:1008B00061E571E088E291E00E949B018130C1F422
:1008C0000E946D028BEA92E00E94DD0181E00E94AD
:1008D000BD0287EB91E00E94DD0181E00E94BD0234
:1008E00084E292E00E94DD0181E00E94BD0215C019
:1008F0008BEA92E00E94DD0181E00E94BD0287EB5D
:1009000091E00E94DD0181E00E94BD020E94EF02A1
:100910000E9426030E94890371CF13E082E00E94A7
:10092000BD0280E990E00E94DD0185E00E94BD02E9
:100930008EEA90E00E94DD0185E00E94BD028FE911
:1009400090E00E94DD010E94EE01882389F04CE0D6
:1009500050E064E870E081E591E00E942D0561E5DA
:1009600071E088E291E00E949B0191E0813009F002
:1009700090E0115019F0992389F203C0913009F0E9
:1009800068C081E00E94BD0288E690E00E94DD011F
:100990000E94940281E00E94BD0281E790E00E94E3
:1009A000DD010E94140281E00E94BD0288E192E014
:1009B0000E94DD0181E00E94BD028EE092E00E9473
:1009C000DD0189E191E00E94D10185EF91E00E9473
:1009D000DD0181E00E94BD0288E291E00E94D10128
:1009E00088E591E00E94DD0185E091E00E94D1015F
:1009F0008CE491E00E94DD018FE091E00E94D10142
:100A00008EE391E00E94DD0180E091E00E94D1013F
:100A10008FE691E00E94DD018FE091E00E94D1011C
:100A20008DE691E00E94DD0185E091E00E94D10118
:100A30008AE691E00E94DD0181E00E94BD028AE128
:100A40000E948D018AE00E94BD0280E990E00E9430
:100A5000DD018AE00E94BD02D1CEFB01DC0102C0B3
:100A600005900D9241505040D8F70895F894FFCF6B
:100A70003132333435313233343536373839303139
:100A8000323334353637383930313233343536371E
:100A90003839303132333435313233343536373812
:100AA0003930313233343536373839303132333406
:100AB00035363738393031323334353637383930E6
:00000001FF
