:100000000C9452010C94C4030C946F010C946F0176
:100010000C946F010C946F010C946F010C946F01A0
:100020000C946F010C946F010C946F010C946F0190
:100030000C946F010C946F010C946F010C946F0180
:100040000C946F010C946F010C946F010C946F0170
:100050000C946F010C946F010C946F010C946F0160
:100060000C946F010C946F0141542B4342430D0AD1
:100070000041542B43495047534D4C4F433D312C85
:10008000310D0A002B53415042523A20312C31009D
:1000900041542B53415042523D302C310D0A004106
:1000A000542B53415042523D322C310D0A004154E1
:1000B0002B53415042523D312C310D0A0041542BFB
:1000C00053415042523D332C312C22505744222C64
:1000D00022696E7465726E6574220D0A0041542B9C
:1000E00053415042523D332C312C2255534552221C
:1000F0002C22696E7465726E6574220D0A0041547B
:100100002B53415042523D332C312C2241504E2230
:100110002C22696E7465726E6574220D0A0041545A
:100120002B53415042523D332C312C22434F4E54DD
:10013000595045222C2247505253220D0A000A42A0
:100140004154544552595B6D565D3D00204C41541D
:100150005449545544453D00205554430A204C4FC2
:100160004E475449545544453D000D0A002C000D9E
:100170000A20687474703A2F2F6D6170732E676F48
:100180006F676C652E636F6D2F6D6170733F713D8E
:100190000041542B434E45544C494748543D300D83
:1001A0000A00415426570D0A0041542B4950523D34
:1001B000393630300D0A0041542B4353434C4B3DEC
:1001C000300D0A0041542B4353434C4B3D320D0A32
:1001D0000041542B4346554E3D310D0A0041542BEE
:1001E0004346554E3D340D0A0041542B434C495073
:1001F0003D310D0A00220A0D0041542B434D474466
:10020000413D2244454C20414C4C220D0A004154B2
:100210002B434D47533D220041542B434D47463D10
:10022000310D0A004154480A0D0041542B43464702
:1002300052493D310A0D0041542B4350494E3D2255
:1002400031313131220A0D00415445300A0D00414F
:10025000542B4350494E3F0A0D002B4350494E3A10
:100260002053494D2050494E002B4350494E3A20CF
:1002700052454144590041542B435245473F0A0DD2
:10028000002B435245473A20302C35002B43524532
:10029000473A20302C310052494E47004F4B004125
:1002A000540A0D0011241FBECFEFD8E0DEBFCDBF32
:1002B00011E0A0E0B1E0EAE5FAE002C005900D929D
:1002C000A035B107D9F711E0A0E5B1E001C01D925A
:1002D000A936B107E1F70E94CF030C942B050C94CB
:1002E000000082E08093C0001092C5008CE08093F3
:1002F000C400E1ECF0E080818860808380818061CF
:100300008083E2ECF0E080818660808308959091A4
:10031000C00095FFFCCF8093C60008958091C00077
:1003200087FFFCCF8091C6000895CF93DF93AC0187
:10033000DC0190E020E03D91FB01E90FF11D80819F
:10034000381320C090E0892F820FFA01E80FF11DC9
:100350003081C92FD0E031110BC0FB01019000208A
:10036000E9F73197E61BF70BCE17DF0759F40FC0FB
:10037000FB01EC0FFD1F8081882379F33813EDCF4B
:100380009F5FE1CF2F5F2832B1F680E001C081E0AE
:10039000DF91CF910895CF93DF93EC01899188236A
:1003A00019F00E948701FACFDF91CF910895CF9382
:1003B000DF93EC01CE01FE012491222331F021963E
:1003C000FC0184910E948701F5CFDF91CF910895C0
:1003D000109268010E948E01282F30E02A303105EA
:1003E00079F02D30310561F0E0916801F0E0E85DD1
:1003F000FE4F8083809168018F5F80936801EACF10
:1004000080916801882331F3E0916801F0E0E85DB4
:10041000FE4F10821092680181E0089510926501EC
:1004200010926601109268010E948E018C32E1F7F1
:100430000E948E01E0916501F0E0EB5FFE4F80834A
:10044000909165019F5F909365018C3289F7E091EF
:100450006501F0E0EC5FFE4F1082109265010E9492
:100460008E01E0916601F0E0E15FFE4F80839091A4
:1004700066019F5F909366018C3289F7E091660177
:10048000F0E0E25FFE4F1082109266010E948E0142
:10049000282F30E0E0916801F0E0E85DFE4F8083B6
:1004A000809168018F5F809368012D30310519F0CC
:1004B0002A30310559F7E0916801F0E0E95DFE4F1F
:1004C0001082109268010E948E0181E008951092BE
:1004D00067010E948E018232E1F70E948E01E09155
:1004E0006701F0E0E75EFE4F8083909167019F5FB8
:1004F00090936701823289F7E0916701F0E0E85E4E
:10050000FE4F1082109267010E948E0190E08A30A7
:10051000910511F00D97C1F781E0089510925001F7
:100520000E948E018C32E1F70E948E018C32E1F73D
:100530000E948E01282F30E0E0915001F0E0E05061
:10054000FF4F8083809150018F5F809350012A304C
:10055000310519F02D30310559F7E0915001F0E0E7
:10056000E150FF4F10821092500181E008958823DE
:1005700061F026E033E14EEA4A95F1F73A95E1F76A
:100580002A95D1F700C08150F2CF0895CF938FE91B
:1005900092E00E94D7010E94E801882389F043E09D
:1005A00050E06CE972E081E591E00E94220561E58E
:1005B00071E088E291E00E949501C1E0813009F08C
:1005C000C0E081E00E94B702CC2309F388E492E006
:1005D0000E94D70182E00E94B70281E0CF91089586
:1005E000CF9382E00E94B7028FE492E00E94D7018D
:1005F0000E94E8018823A9F34DE050E069E672E02B
:1006000081E591E00E94220561E571E088E291E0D8
:100610000E949501C82F4FE050E06AE572E081E545
:1006200091E00E94220561E571E088E291E00E947C
:100630009501813039F487E392E00E94D70181E08F
:100640000E94B702C13069F681E0CF910895CF933F
:10065000DF9388E70E94B70286E792E00E94D70105
:100660000E94E801882309F447C04BE050E06CE8A1
:1006700072E081E591E00E94220561E571E088E287
:1006800091E00E949501C82F4BE050E061E872E0D4
:1006900081E591E00E94220561E571E088E291E048
:1006A0000E949501813051F181E0C13041F10E94F9
:1006B000B7028DED91E00E94D70181E00E94B70260
:1006C00084EC91E00E94D701CCE38CE30E94B70256
:1006D000C150D9F78FE992E00E94D70181E00E94D2
:1006E000B70287EB91E00E94D70181E00E94B70238
:1006F00081ED91E00E94D70180E001C081E0DF5FE1
:10070000811104C0D03309F0A4CF01C081E0DF9192
:10071000CF91089581E00E94B7028EE191E00E949E
:10072000D70181E00E94B7028EEF90E00E94D701CE
:1007300081E00E94B7028DED90E00E94D70181E038
:100740000E94B7028DEB90E00E94D70181E00E94E9
:10075000B70281E0089583B7817F846083BF83B748
:10076000816083BF52985A9AF894E9E6F0E080815C
:100770008D7F808380818E7F8083E89A78948895AE
:1007800083B78E7F83BF08951F920F920FB60F928B
:100790001124E8980F900FBE0F901F9018950E949B
:1007A000710152985A9A8AE00E94B7020E94C602CA
:1007B00082E00E94B70289EA91E00E94D70182E0BC
:1007C0000E94B7028AE292E00E94D70182E00E9472
:1007D000B70282EA91E00E94D70183E00E94B7024B
:1007E0000E94F0020E9427030E948A0389EE91E092
:1007F0000E94D70182E00E94B702C0E0D0E088E109
:1008000092E00E94D70182E00E94B70289EF91E056
:100810000E94D70183E00E94B70281E991E00E9423
:10082000D70182E00E94B70284EC91E00E94D701D8
:1008300082E00E94B7024A9918C0219681E00E9486
:10084000B702C0318EE0D807B1F78FE992E00E947D
:10085000D70181E00E94B70287EB91E00E94D701A7
:100860000E942703C0E0D0E0E6CF0E94E801882381
:1008700031F245E050E067E972E081E591E00E94E5
:10088000220561E571E088E291E00E9495018130E6
:10089000C9F40E9467028FE992E00E94D70181E0CB
:1008A0000E94B70287EB91E00E94D70181E00E948D
:1008B000B70284E292E00E94D70181E00E94B70271
:1008C00013E036C08FE992E00E94D70181E00E94D8
:1008D000B70287EB91E00E94D70181E00E94B70246
:1008E0000E94F0020E9427030E948A0389EE91E091
:1008F0000E94D70182E00E94B70280E990E00E9446
:10090000D70182E09CC04CE050E064E870E081E5F3
:1009100091E00E94220561E571E088E291E00E9489
:10092000950191E08130E9F41150E9F091111EC078
:1009300085E00E94B70280E990E00E94D70182E042
:100940000E94B7028EEA90E00E94D70185E00E94E3
:10095000B7028FE990E00E94D7010E94E80181115F
:10096000D2CF90E0E1CF913009F068C081E00E94E1
:10097000B70288E690E00E94D7010E948E0281E0D3
:100980000E94B70281E790E00E94D7010E940E0208
:1009900081E00E94B70288E192E00E94D70181E0E5
:1009A0000E94B7028EE092E00E94D70189E191E0B7
:1009B0000E94CB0185EF91E00E94D70181E00E9467
:1009C000B70288E291E00E94CB0188E591E00E94A5
:1009D000D70185E091E00E94CB018CE491E00E9478
:1009E000D7018FE091E00E94CB018EE391E00E945D
:1009F000D70180E091E00E94CB018FE691E00E9458
:100A0000D7018FE091E00E94CB018DE691E00E943A
:100A1000D70185E091E00E94CB018AE691E00E9437
:100A2000D70181E00E94B7028AE10E94870185E038
:100A30000E94B70280E990E00E94D7018AE00E94FC
:100A4000B702DDCEFB01DC0102C005900D924150E2
:0A0A50005040D8F70895F894FFCF46
:100A5A00313233343531323334353637383930314F
:100A6A003233343536373839303132333435363734
:100A7A003839303132333435313233343536373828
:100A8A00393031323334353637383930313233341C
:100A9A0035363738393031323334353637383930FC
:00000001FF
