:1000000025C13DC13CC13BC13AC139C138C137C12D
:1000100036C135C134C133C132C131C130C12FC144
:100020002EC12DC12CC141542B43495047534D4C37
:100030004F433D312C310D0A002B53415042523A6F
:1000400020312C310041542B53415042523D302C31
:10005000310D0A0041542B53415042523D322C3154
:100060000D0A0041542B53415042523D312C310D69
:100070000A0041542B53415042523D332C312C2223
:10008000505744222C22696E7465726E6574220D7D
:100090000A0041542B53415042523D332C312C2203
:1000A00055534552222C22696E7465726E65742216
:1000B0000D0A0041542B53415042523D332C312CF8
:1000C0002241504E222C22696E7465726E65742234
:1000D0000D0A0041542B53415042523D332C312CD8
:1000E00022434F4E54595045222C224750525322FE
:1000F0000D0A00204C4154543D00205554430A2021
:100100004C4F4E473D000D0A002C000D0A2068742C
:1001100074703A2F2F6D6170732E676F6F676C6507
:100120002E636F6D2F6D6170733F713D00415426DA
:10013000570D0A0041542B4950523D393630300D8D
:100140000A0041542B4353434C4B3D300D0A0041B0
:10015000542B4353434C4B3D320D0A0041542B4327
:1001600046554E3D310D0A0041542B4346554E3DF8
:10017000340D0A0041542B434C49503D310D0A00C7
:10018000220A0D0041542B434E45544C49474854D4
:100190003D300D0A0041542B434D4744413D22441C
:1001A000454C20414C4C220D0A0041542B434D47F5
:1001B000533D220041542B434D47463D310D0A002B
:1001C0004154480A0D0041542B4350494E3D2231C1
:1001D000313131220A0D00415445300A0D0041549D
:1001E0002B4350494E3F0A0D002B4350494E3A20B5
:1001F00053494D2050494E002B4350494E3A20520E
:1002000045414459002B435245473D20312C300095
:1002100041542B435245473D310A0D0041542B4375
:100220005245473F0A0D002B435245473A20312C97
:1002300035002B435245473A20312C310052494E6C
:1002400047004F4B00202041540A0D0011241FBECF
:10025000CFEDCDBF10E0A0E6B0E0E4EBF7E002C0E8
:1002600005900D92AC3AB107D9F710E0ACEAB0E0D6
:1002700001C01D92A43CB107E1F7C0D199C2C0CE24
:1002800082E08BB912B88CE089B988E18AB986E03E
:1002900083B908955D9BFECF8CB908955F9BFECF17
:1002A0008CB10895CF93DF93AC01DC0190E020E0A6
:1002B0003D91FB01E90FF11D8081381320C090E0D2
:1002C000892F820FFA01E80FF11D3081C92FD0E08C
:1002D00031110BC0FB0101900020E9F73197E61BBB
:1002E000F70BCE17DF0759F40FC0FB01EC0FFD1F12
:1002F0008081882379F33813EDCF9F5FE1CF2F5FA3
:100300002832B1F680E001C081E0DF91CF910895FD
:10031000CF93DF93EC018991882311F0BBDFFBCFF2
:10032000DF91CF910895CF93DF93EC01CE01FE01D1
:100330002491222329F02196FC018491ABDFF6CF92
:10034000DF91CF9108951092C300A8DF282F30E0ED
:100350002A30310579F02D30310561F0E091C3008C
:10036000F0E0ED57FF4F80838091C3008F5F809353
:10037000C300EBCF8091C300882339F3E091C30021
:10038000F0E0ED57FF4F10821092C30081E0089516
:100390001092C0001092C1001092C3007FDF8C3217
:1003A000E9F77CDFE091C000F0E0E05AFF4F808386
:1003B0009091C0009F5F9093C0008C3291F7E091C4
:1003C000C000F0E0E15AFF4F10821092C00066DFDB
:1003D000E091C100F0E0E659FF4F80839091C100A9
:1003E0009F5F9093C1008C3291F7E091C100F0E0E3
:1003F000E759FF4F10821092C10050DF282F30E0E4
:10040000E091C300F0E0ED57FF4F80838091C3007F
:100410008F5F8093C3002D30310519F02A303105EC
:1004200061F7E091C300F0E0EE57FF4F10821092A9
:10043000C30034DF81E008951092C2002FDF8232C2
:10044000E9F72CDFE091C200F0E0EC58FF4F808329
:100450009091C2009F5F9093C200823291F7E09129
:10046000C200F0E0ED58FF4F10821092C20016DF7C
:1004700090E08A30910511F00D97C9F781E0089559
:10048000882361F026E033E14EEA4A95F1F73A9588
:10049000E1F72A95D1F700C08150F2CF0895CF93AC
:1004A00085E492E040DF4FDF882379F043E050E0BD
:1004B00062E472E08CEA90E072D16CEA70E083E86A
:1004C00090E0F0DEC1E0813009F0C0E081E0D8DFEB
:1004D000CC2331F387ED91E026DF81E0CF910895C1
:1004E000CF9382E0CDDF8EED91E01DDF2CDF8823FE
:1004F000C1F34DE050E068EF71E08CEA90E04FD13D
:100500006CEA70E083E890E0CDDEC82F4FE050E069
:1005100069EE71E08CEA90E042D16CEA70E083E829
:1005200090E0C0DE813029F486EC91E0FCDE81E0D1
:10053000A7DFC130B1F681E0CF910895CF93DF936B
:1005400085E09EDF8CE192E0EEDEFDDE8823C1F3E4
:100550004BE050E062E372E08CEA90E020D16CEA7C
:1005600070E083E890E09EDED82F4BE050E067E239
:1005700072E08CEA90E013D16CEA70E083E890E0DE
:1005800091DEC1E0813019F0D13009F0C0E04BE0DC
:1005900050E065E072E08CEA90E001D16CEA70E036
:1005A00083E890E07FDE813051F488E691E0BBDEA5
:1005B00080EF66DF8CE591E0B6DE8CE361DFCC2373
:1005C00009F4BECF81E0DF91CF91089581E058DF3B
:1005D00083ED90E0A8DE81E053DF83EB90E0A3DEC3
:1005E00081E04EDF82E990E09EDE81E049DF82E734
:1005F00090E099DE81E044DF81E0089541DE8AE009
:100600003FDF4DDF82E03CDF84E391E08CDE82E07F
:1006100037DF80E192E087DE82E032DF8DE291E039
:1006200082DE83E02DDF5CDF89DFD0DF82E028DF40
:1006300084E791E078DE82E023DF85E490E073DEFA
:1006400082E01EDF84EB91E06EDE82E019DF85E957
:1006500091E069DE83E014DF84E891E064DE81E00C
:100660000FDF8FE491E05FDE82E00ADF6CDE88233B
:1006700049F345E050E06DE372E08CEA90E08FD002
:100680006CEA70E083E890E00DDE813091F4D4DE16
:1006900085E492E048DE81E0F3DE82E491E043DE2F
:1006A00081E0EEDE80EC91E03EDE81E0E9DEC3E059
:1006B00021C085E492E037DE81E0E2DE82E491E071
:1006C00032DE81E0DDDE0CDF39DF80DFB1CF4CE0F0
:1006D00050E069E370E08CEA90E061D06CEA70E091
:1006E00083E890E0DFDD91E08130B1F4C150B1F0FA
:1006F000911116C082E0C4DE85E490E014DE82E051
:10070000BFDE83E690E00FDE85E0BADE84E590E0B0
:100710000ADE19DE8111DBCF90E0E8CF9130E9F5F8
:1007200081E0AEDE86E290E0FEDD32DE84EB91E039
:10073000FADD81E0A5DE8AEA91E0F5DD84E790E06C
:10074000E7DD80E891E0EFDD81E09ADE83E890E08C
:10075000DFDD8AEF90E0E7DD80E690E0D9DD83EF32
:1007600090E0E1DD8AE690E0D3DD8BE091E0DBDD37
:100770008AE690E0CDDD89E091E0D5DD80E690E08D
:10078000C7DD86E091E0CFDD81E07ADE8AE182DDBF
:1007900085E076DE85E490E0C6DD8AE052CFFB019D
:1007A000DC0102C005900D9241505040D8F70895E9
:0407B000F894FFCFEB
:1007B40031323334353637383930313233343536F3
:1007C40037383930313233343536373839303132DD
:1007D40033343531323334353637383930313233D6
:1007E40034353637383930313233343536373839B1
:0C07F400303132333435363738393000BC
:00000001FF
