:100000000C9458010C94CA030C9475010C9475015E
:100010000C9475010C9475010C9475010C94750188
:100020000C9475010C9475010C9475010C94750178
:100030000C9475010C9475010C9475010C94750168
:100040000C9475010C9475010C9475010C94750158
:100050000C9475010C9475010C9475010C94750148
:100060000C9475010C94750141542B4342430D0AC5
:100070000041542B43495047534D4C4F433D312C85
:10008000310D0A002B53415042523A20312C31009D
:1000900041542B53415042523D302C310D0A004106
:1000A000542B53415042523D322C310D0A004154E1
:1000B0002B53415042523D312C310D0A0041542BFB
:1000C00053415042523D332C312C22505744222C64
:1000D00022696E7465726E6574220D0A0041542B9C
:1000E00053415042523D332C312C2255534552221C
:1000F0002C22696E7465726E6574220D0A0041547B
:100100002B53415042523D332C312C2241504E2230
:100110002C22696E7465726E6574220D0A0041545A
:100120002B53415042523D332C312C22434F4E54DD
:10013000595045222C2247505253220D0A000A42A0
:100140004154544552595B6D565D3D00204C41541D
:100150005449545544453D00205554430A204C4FC2
:100160004E475449545544453D000D0A002C000D9E
:100170000A20687474703A2F2F6D6170732E676F48
:100180006F676C652E636F6D2F6D6170733F713D8E
:100190000041542B434E45544C494748543D300D83
:1001A0000A00415426570D0A0041542B4950523D34
:1001B000393630300D0A0041542B4353434C4B3DEC
:1001C000300D0A0041542B4353434C4B3D320D0A32
:1001D0000041542B4346554E3D310D0A0041542BEE
:1001E0004346554E3D340D0A0041542B434C495073
:1001F0003D310D0A00220A0D0041542B434D474466
:10020000413D2244454C20414C4C220D0A004154B2
:100210002B434D47533D220041542B434D47463D10
:10022000310D0A004154480A0D0041542B43464702
:1002300052493D310A0D0041542B4350494E3D2255
:1002400031313131220A0D00415445300A0D00414F
:10025000542B4350494E3F0A0D002B4350494E3A10
:100260002053494D2050494E002B4350494E3A20CF
:1002700052454144590041542B435245473D300AB1
:100280000D0041542B435245473F0A0D002B43526A
:1002900045473A20302C35002B435245473A203011
:1002A0002C310052494E47004F4B0041540A0D007B
:1002B00011241FBECFEFD8E0DEBFCDBF11E0A0E01C
:1002C000B1E0E4E7FAE002C005900D92A035B10775
:1002D000D9F711E0A0E5B1E001C01D92A936B10740
:1002E000E1F70E94D5030C9438050C94000082E0DD
:1002F0008093C0001092C5008CE08093C400E1ECB4
:10030000F0E0808188608083808180618083E2EC7E
:10031000F0E080818660808308959091C00095FF11
:10032000FCCF8093C60008958091C00087FFFCCF6A
:100330008091C6000895CF93DF93AC01DC0190E07B
:1003400020E03D91FB01E90FF11D8081381320C0B1
:1003500090E0892F820FFA01E80FF11D3081C92F3B
:10036000D0E031110BC0FB0101900020E9F731977B
:10037000E61BF70BCE17DF0759F40FC0FB01EC0F9C
:10038000FD1F8081882379F33813EDCF9F5FE1CF84
:100390002F5F2832B1F680E001C081E0DF91CF917C
:1003A0000895CF93DF93EC018991882319F00E947F
:1003B0008D01FACFDF91CF910895CF93DF93EC01B8
:1003C000CE01FE012491222331F02196FC0184917B
:1003D0000E948D01F5CFDF91CF91089510926801B1
:1003E0000E949401282F30E02A30310579F02D3019
:1003F000310561F0E0916801F0E0E85DFE4F808337
:10040000809168018F5F80936801EACF80916801D5
:10041000882331F3E0916801F0E0E85DFE4F10823F
:100420001092680181E008951092650110926601B2
:10043000109268010E9494018C32E1F70E949401AD
:10044000E0916501F0E0EB5FFE4F808390916501E4
:100450009F5F909365018C3289F7E0916501F0E030
:10046000EC5FFE4F1082109265010E949401E091B2
:100470006601F0E0E15FFE4F8083909166019F5F2F
:10048000909366018C3289F7E0916601F0E0E25FBB
:10049000FE4F1082109266010E949401282F30E0D6
:1004A000E0916801F0E0E85DFE4F80838091680193
:1004B0008F5F809368012D30310519F02A303105A6
:1004C00059F7E0916801F0E0E95DFE4F108210926B
:1004D00068010E94940181E00895109267010E94D2
:1004E00094018232E1F70E949401E0916701F0E00B
:1004F000E75EFE4F8083909167019F5F9093670155
:10050000823289F7E0916701F0E0E85EFE4F1082E9
:10051000109267010E94940190E08A30910511F0D9
:100520000D97C1F781E00895109250010E94940147
:100530008C32E1F70E9494018C32E1F70E94940121
:10054000282F30E0E0915001F0E0E050FF4F808331
:10055000809150018F5F809350012A30310519F04E
:100560002D30310559F7E0915001F0E0E150FF4F97
:1005700010821092500181E00895882361F026E0F6
:1005800033E14EEA4A95F1F73A95E1F72A95D1F72A
:1005900000C08150F2CF0895CF938BEA92E00E9481
:1005A000DD010E94EE01882389F043E050E068EA13
:1005B00072E081E591E00E942F0561E571E088E23B
:1005C00091E00E949B01C1E0813009F0C0E081E030
:1005D0000E94BD02CC2309F388E492E00E94DD0171
:1005E00082E00E94BD0281E0CF910895CF9382E026
:1005F0000E94BD028FE492E00E94DD010E94EE01A4
:100600008823A9F34DE050E069E672E081E591E0CE
:100610000E942F0561E571E088E291E00E949B0154
:10062000C82F4FE050E06AE572E081E591E00E945A
:100630002F0561E571E088E291E00E949B01813025
:1006400039F487E392E00E94DD0181E00E94BD025F
:10065000C13069F681E0CF910895CF93DF9388E7A9
:100660000E94BD0282E892E00E94DD010E94EE013C
:10067000882309F447C04BE050E068E972E081E567
:1006800091E00E942F0561E571E088E291E00E940F
:100690009B01C82F4BE050E06DE872E081E591E0EE
:1006A0000E942F0561E571E088E291E00E949B01C4
:1006B000813051F181E0C13041F10E94BD028DEDE8
:1006C00091E00E94DD0181E00E94BD0284EC91E096
:1006D0000E94DD01CCE38CE30E94BD02C150D9F73A
:1006E0008BEA92E00E94DD0181E00E94BD0287EB6F
:1006F00091E00E94DD0181E00E94BD0281ED91E068
:100700000E94DD0180E001C081E0DF5F811104C053
:10071000D03309F0A4CF01C081E0DF91CF910895DB
:1007200081E00E94BD028EE191E00E94DD0181E046
:100730000E94BD028EEF90E00E94DD0181E00E94E8
:10074000BD028DED90E00E94DD0181E00E94BD02BE
:100750008DEB90E00E94DD0181E00E94BD0281E00E
:10076000089583B7817F846083BF83B7816083BF2F
:1007700052985A9AF894E9E6F0E080818D7F808360
:1007800080818E7F8083E89A7894889583B78E7F66
:1007900083BF08951F920F920FB60F921124E8980D
:1007A0000F900FBE0F901F9018950E9477015298DE
:1007B0005A9A8AE00E94BD020E94CC0282E00E9406
:1007C000BD0289EA91E00E94DD0182E00E94BD0243
:1007D0008AE292E00E94DD0182E00E94BD0286E78B
:1007E00092E00E94DD0182E00E94BD0282EA91E077
:1007F0000E94DD0183E00E94BD020E94F6020E9479
:100800002D030E94900389EE91E00E94DD0182E0B9
:100810000E94BD02C0E0D0E088E192E00E94DD01CC
:1008200082E00E94BD0289EF91E00E94DD0183E039
:100830000E94BD0281E991E00E94DD0182E00E94F8
:10084000BD0284EC91E00E94DD0182E00E94BD02C5
:100850004A9918C0219681E00E94BD02C0318EE005
:10086000D807B1F78BEA92E00E94DD0181E00E9497
:10087000BD0287EB91E00E94DD010E942D03C0E0E4
:10088000D0E0E6CF0E94EE01882331F245E050E04F
:1008900063EA72E081E591E00E942F0561E571E075
:1008A00088E291E00E949B018130C9F40E946D02B0
:1008B0008BEA92E00E94DD0181E00E94BD0287EB9D
:1008C00091E00E94DD0181E00E94BD0284E292E09D
:1008D0000E94DD0181E00E94BD0213E036C08BEA78
:1008E00092E00E94DD0181E00E94BD0287EB91E071
:1008F0000E94DD0181E00E94BD020E94F6020E947A
:100900002D030E94900389EE91E00E94DD0182E0B8
:100910000E94BD0280E990E00E94DD0182E09CC05F
:100920004CE050E064E870E081E591E00E942F0522
:1009300061E571E088E291E00E949B0191E08130E5
:10094000E9F41150E9F091111EC085E00E94BD024A
:1009500080E990E00E94DD0182E00E94BD028EEA03
:1009600090E00E94DD0185E00E94BD028FE990E0E9
:100970000E94DD010E94EE018111D2CF90E0E1CF13
:10098000913009F068C081E00E94BD0288E690E0E5
:100990000E94DD010E94940281E00E94BD0281E775
:1009A00090E00E94DD010E94140281E00E94BD02DD
:1009B00088E192E00E94DD0181E00E94BD028EE0AC
:1009C00092E00E94DD0189E191E00E94D10185EF72
:1009D00091E00E94DD0181E00E94BD0288E291E089
:1009E0000E94D10188E591E00E94DD0185E091E05F
:1009F0000E94D1018CE491E00E94DD018FE091E042
:100A00000E94D1018EE391E00E94DD0180E091E03F
:100A10000E94D1018FE691E00E94DD018FE091E01C
:100A20000E94D1018DE691E00E94DD0185E091E018
:100A30000E94D1018AE691E00E94DD0181E00E94DE
:100A4000BD028AE10E948D0185E00E94BD0280E91D
:100A500090E00E94DD018AE00E94BD02DDCEFB0134
:100A6000DC0102C005900D9241505040D8F7089526
:040A7000F894FFCF28
:100A74003132333435313233343536373839303135
:100A8400323334353637383930313233343536371A
:100A9400383930313233343531323334353637380E
:100AA4003930313233343536373839303132333402
:100AB40035363738393031323334353637383930E2
:00000001FF
