:10000000F7C0C8C20EC10DC10CC10BC10AC109C1E4
:1000100008C107C106C105C104C103C102C101C1B4
:1000200000C1FFC0FEC041542B43495047534D4CC3
:100030004F433D312C310D0A002B53415042523A6F
:1000400020312C310041542B53415042523D302C31
:10005000310D0A0041542B53415042523D322C3154
:100060000D0A0041542B53415042523D312C310D69
:100070000A0041542B53415042523D332C312C2223
:10008000505744222C22696E7465726E6574220D7D
:100090000A0041542B53415042523D332C312C2203
:1000A00055534552222C22696E7465726E65742216
:1000B0000D0A0041542B53415042523D332C312CF8
:1000C0002241504E222C22696E7465726E65742234
:1000D0000D0A0041542B53415042523D332C312CD8
:1000E00022434F4E54595045222C224750525322FE
:1000F0000D0A00204C4154543D00205554430A2021
:100100004C4F4E473D000D0A002C000D0A2068742C
:1001100074703A2F2F6D6170732E676F6F676C6507
:100120002E636F6D2F6D6170733F713D0041542BD5
:100130004353434C4B3D300D0A0041542B43534332
:100140004C4B3D320D0A0041542B434C49503D313C
:100150000D0A00220A0D0041542B434D47533D2206
:100160000041542B434D47463D310D0A0041544850
:100170000A0D0041542B43464752493D310A0D00B8
:1001800041542B4350494E3D2231313131220A0D29
:1001900000415445300A0D0041542B4350494E3F15
:1001A0000A0D002B4350494E3A2053494D205049E7
:1001B0004E002B4350494E3A20524541445900418C
:1001C000542B435245473F0A0D002B435245473AB3
:1001D00020302C32002B435245473A20302C31003E
:1001E00052494E47004F4B00202041540A0D000059
:1001F00011241FBECFEDCDBF10E0A0E6B0E0E6E5D4
:10020000F7E002C005900D92AC3AB107D9F710E0C3
:10021000ACEAB0E001C01D92A43CB107E1F7C5D142
:1002200098C2EECE12B883E389B988E18AB986E034
:1002300083B908955D9BFECF8CB908955F9BFECF77
:100240008CB10895CF93DF93AC01DC0190E020E006
:100250003D91FB01E90FF11D8081381320C090E032
:10026000892F820FFA01E80FF11D3081C92FD0E0EC
:1002700031110BC0FB0101900020E9F73197E61B1B
:10028000F70BCE17DF0759F40FC0FB01EC0FFD1F72
:100290008081882379F33813EDCF9F5FE1CF2F5F03
:1002A0002832B1F680E001C081E0DF91CF9108955E
:1002B000CF93DF93EC018991882311F0BBDFFBCF53
:1002C000DF91CF910895CF93DF93EC01CE01FE0132
:1002D0002491222329F02196FC018491ABDFF6CFF3
:1002E000DF91CF910895CF93DF931092C300C0E0C8
:1002F000D0E0A4DF282F30E02A30310579F02D300E
:10030000310561F0E091C300F0E0ED57FF4F8083CD
:100310008091C3008F5F8093C3000FC08091C300A2
:10032000882359F0E091C300F0E0ED57FF4F1082B1
:100330001092C30081E090E002C080E090E021963E
:10034000892BB9F28C2F8150DF91CF9108951092B3
:10035000C0001092C1001092C30070DF8C32E9F728
:100360006DDFE091C000F0E0E05AFF4F8083909194
:10037000C0009F5F9093C0008C3291F7E091C00065
:10038000F0E0E15AFF4F10821092C00057DFE09179
:10039000C100F0E0E659FF4F80839091C1009F5F5C
:1003A0009093C1008C3291F7E091C100F0E0E759E1
:1003B000FF4F10821092C10041DF282F30E0E09102
:1003C000C300F0E0ED57FF4F80838091C3008F5F43
:1003D0008093C3002D30310519F02A30310561F7C3
:1003E000E091C300F0E0EE57FF4F10821092C3007F
:1003F00025DF81E008951092C20020DF8232E9F704
:100400001DDFE091C200F0E0EC58FF4F8083909137
:10041000C2009F5F9093C200823291F7E091C200C8
:10042000F0E0ED58FF4F10821092C20007DF90E01D
:100430008A30910511F00D97C9F781E0089588235E
:1004400059F029E236E940E84A95F1F73A95E1F7A3
:100450002A95D1F78150F3CF089588EE91E033DFEC
:1004600042DF8823D1F343E050E065EE71E08CEA8F
:1004700090E066D16CEA70E083E890E0E3DE8130E2
:1004800061F782E0DCDF81E991E01DDF81E0089522
:10049000CF9382E0D4DF88E991E015DF24DF882361
:1004A000C1F34DE050E062EB71E08CEA90E048D19E
:1004B0006CEA70E083E890E0C5DEC82F4FE050E0C2
:1004C00063EA71E08CEA90E03BD16CEA70E083E88B
:1004D00090E0B8DE813029F480E891E0F4DE81E03C
:1004E000AEDFC130B1F681E0CF910895CF9382E0C5
:1004F000A6DF8FEB91E0E7DEF6DE8823C1F34BE069
:1005000050E065ED71E08CEA90E01AD16CEA70E0A1
:1005100083E890E097DEC82F4BE050E06AEC71E092
:100520008CEA90E00DD16CEA70E083E890E08ADE1E
:10053000813011F0C130D9F681E0CF91089581E08A
:100540007EDF83ED90E0BFDE81E079DF83EB90E03A
:10055000BADE81E074DF82E990E0B5DE81E06FDF32
:1005600082E790E0B0DE81E06ADF81E0089585B740
:10057000806585BF85B7806285BF85B78C7F85BF65
:100580008BB780648BBFF8947894889585B78F7DFE
:1005900085BF08951F920F920FB60F9211241BBEB4
:1005A0000F900FBE0F901F9018953CDE8AE047DF3A
:1005B00054DF6EDF9BDFC3DF82E041DF87E491E041
:1005C00082DE82E03CDF85E490E07DDE82E037DFA2
:1005D00083E791E078DE82E032DF8AE391E073DE48
:1005E00082E02DDFC4DF7FDE8823E9F345E050E0C1
:1005F00060EE71E08CEA90E0A3D06CEA70E083E8F2
:1006000090E020DE813091F4F6DE88EE91E05BDE52
:1006100081E015DF8DE291E056DE81E010DF8DE6AE
:1006200091E051DE81E00BDFC3E030C088EE91E065
:100630004ADE81E004DF8DE291E045DE81E0FFDE0D
:1006400027DF54DF7CDF87E491E03DDE82E0F7DEE8
:1006500085E490E038DE82E0F2DE83E791E033DE8D
:1006600082E0EDDEC0CF4CE050E069E370E08CEA60
:1006700090E066D06CEA70E083E890E0E3DD91E022
:100680008130B1F4C150B1F0911116C082E0D7DED3
:1006900085E490E018DE82E0D2DE83E690E013DEAF
:1006A00085E0CDDE84E590E00EDE1DDE8111DBCF3E
:1006B00090E0E8CF9130E9F581E0C1DE86E290E09C
:1006C00002DE45DE81E691E0FEDD81E0B8DE87E511
:1006D00091E0F9DD84E790E0EBDD83E591E0F3DD87
:1006E00081E0ADDE83E890E0E3DD8AEF90E0EBDDD2
:1006F00080E690E0DDDD83EF90E0E5DD8AE690E0E6
:10070000D7DD8BE091E0DFDD8AE690E0D1DD89E0A6
:1007100091E0D9DD80E690E0CBDD86E091E0D3DDAD
:1007200081E08DDE8AE186DD85E089DE85E490E08A
:10073000CADD8AE084DE8AE391E0C5DD81E051CF45
:10074000FB01DC0102C005900D9241505040D8F7EA
:060750000895F894FFCFAC
:100756003132333435363738393031323334353651
:10076600373839303132333435363738393031323B
:100776003334353132333435363738393031323334
:10078600343536373839303132333435363738390F
:0C0796003031323334353637383930001A
:00000001FF
