:100000001CC134C133C132C131C130C12FC12EC175
:100010002DC12CC12BC12AC129C128C127C126C18C
:1000200025C124C123C141542B43495047534D4C52
:100030004F433D312C310D0A002B53415042523A6F
:1000400020312C310041542B53415042523D302C31
:10005000310D0A0041542B53415042523D322C3154
:100060000D0A0041542B53415042523D312C310D69
:100070000A0041542B53415042523D332C312C2223
:10008000505744222C22696E7465726E6574220D7D
:100090000A0041542B53415042523D332C312C2203
:1000A00055534552222C22696E7465726E65742216
:1000B0000D0A0041542B53415042523D332C312CF8
:1000C0002241504E222C22696E7465726E65742234
:1000D0000D0A0041542B53415042523D332C312CD8
:1000E00022434F4E54595045222C224750525322FE
:1000F0000D0A00204C4154543D00205554430A2021
:100100004C4F4E473D000D0A002C000D0A2068742C
:1001100074703A2F2F6D6170732E676F6F676C6507
:100120002E636F6D2F6D6170733F713D00415426DA
:10013000570D0A0041542B4950523D393630300D8D
:100140000A0041542B4353434C4B3D300D0A0041B0
:10015000542B4353434C4B3D320D0A0041542B4327
:1001600046554E3D310D0A0041542B4346554E3DF8
:10017000340D0A0041542B434C49503D310D0A00C7
:10018000220A0D0041542B434D4744413D22444532
:100190004C20414C4C220D0A0041542B434D4753F7
:1001A0003D220041542B434D47463D310D0A00414D
:1001B00054480A0D0041542B4350494E3D223131E1
:1001C0003131220A0D00415445300A0D0041542BB3
:1001D0004350494E3F0A0D002B4350494E3A20539D
:1001E000494D2050494E002B4350494E3A2052452C
:1001F000414459002B435245473A20312C300041AD
:10020000542B435245473D310A0D0041542B435274
:1002100045473F0A0D002B435245473A20312C35C4
:10022000002B435245473A20312C310052494E476A
:10023000004F4B0041540A0D000011241FBECFEDAA
:10024000CDBF10E0A0E6B0E0E0EBF7E002C0059023
:100250000D92AC3AB107D9F710E0ACEAB0E001C0BA
:100260001D92A43CB107E1F7CED1A0C2C9CE82E075
:100270008BB912B88CE089B988E18AB986E083B974
:1002800008955D9BFECF8CB908955F9BFECF8CB126
:100290000895CF93DF93AC01DC0190E020E03D9125
:1002A000FB01E90FF11D8081381320C090E0892FF8
:1002B000820FFA01E80FF11D3081C92FD0E0311112
:1002C0000BC0FB0101900020E9F73197E61BF70B0B
:1002D000CE17DF0759F40FC0FB01EC0FFD1F808123
:1002E000882379F33813EDCF9F5FE1CF2F5F28325A
:1002F000B1F680E001C081E0DF91CF910895CF9306
:10030000DF93EC018991882311F0BBDFFBCFDF91F4
:10031000CF910895CF93DF93EC01CE01FE0124919C
:10032000222329F02196FC018491ABDFF6CFDF91E7
:10033000CF9108951092C300A8DF282F30E02A3013
:10034000310579F02D30310561F0E091C300F0E026
:10035000ED57FF4F80838091C3008F5F8093C30070
:10036000EBCF8091C300882339F3E091C300F0E024
:10037000ED57FF4F10821092C30081E00895109254
:10038000C0001092C1001092C3007FDF8C32E9F7E9
:100390007CDFE091C000F0E0E05AFF4F8083909155
:1003A000C0009F5F9093C0008C3291F7E091C00035
:1003B000F0E0E15AFF4F10821092C00066DFE0913A
:1003C000C100F0E0E659FF4F80839091C1009F5F2C
:1003D0009093C1008C3291F7E091C100F0E0E759B1
:1003E000FF4F10821092C10050DF282F30E0E091C3
:1003F000C300F0E0ED57FF4F80838091C3008F5F13
:100400008093C3002D30310519F02A30310561F792
:10041000E091C300F0E0EE57FF4F10821092C3004E
:1004200034DF81E008951092C2002FDF8232E9F7B5
:100430002CDFE091C200F0E0EC58FF4F80839091F8
:10044000C2009F5F9093C200823291F7E091C20098
:10045000F0E0ED58FF4F10821092C20016DF90E0DE
:100460008A30910511F00D97C9F781E0089588232E
:1004700061F026E033E14EEA4A95F1F73A95E1F76B
:100480002A95D1F700C08150F2CF0895CF9384E32D
:1004900092E040DF4FDF882379F043E050E061E3F2
:1004A00072E08CEA90E079D16CEA70E083E890E049
:1004B000F0DEC1E0813009F0C0E081E0D8DFCC237C
:1004C00031F386EC91E026DF81E0CF910895CF9360
:1004D00082E0CDDF8DEC91E01DDF2CDF8823C1F3BE
:1004E0004DE050E067EE71E08CEA90E056D16CEAA6
:1004F00070E083E890E0CDDEC82F4FE050E068ED7B
:1005000071E08CEA90E049D16CEA70E083E890E019
:10051000C0DE813019F485EB91E0FCDEC130C1F61C
:1005200081E0CF910895CF93DF9384EBA0DF8BE040
:1005300092E0F0DEFFDE8823C1F34BE050E061E2A1
:1005400072E08CEA90E029D16CEA70E083E890E0F8
:10055000A0DED82F4BE050E066E172E08CEA90E03C
:100560001CD16CEA70E083E890E093DEC1E081305A
:1005700019F0D13009F0C0E04BE050E064EF71E0D9
:100580008CEA90E00AD16CEA70E083E890E081DECA
:100590008130D1F488E691E0BDDE81E068DF8FE450
:1005A00091E0B8DEDCE38CE362DFD150E1F784E375
:1005B00092E0B0DE81E05BDF82E491E0ABDE81E0DF
:1005C00056DF8CE591E0A6DECC2309F4AECF81E0C6
:1005D000DF91CF91089581E04ADF83ED90E09ADECC
:1005E00081E045DF83EB90E095DE81E040DF82E94A
:1005F00090E090DE81E03BDF82E790E08BDE81E0FF
:1006000036DF81E0089533DE8AE031DF3FDF82E0CC
:100610002EDF84E391E07EDE82E029DF8FEF91E040
:1006200079DE82E024DF8DE291E074DE83E01FDF7B
:100630004EDF79DFD0DF84E791E06CDE82E017DF08
:1006400083EA91E067DE82E012DF84E891E062DE17
:1006500083E00DDF8FE491E05DDE82E008DF6ADE9B
:10066000882371F345E050E06CE272E08CEA90E0A0
:1006700094D06CEA70E083E890E00BDE813091F476
:10068000D2DE84E392E046DE81E0F1DE82E491E0B6
:1006900041DE81E0ECDE8FEA91E03CDE81E0E7DEE6
:1006A000C3E028C084E392E035DE81E0E0DE82E44E
:1006B00091E030DE81E0DBDE0ADF35DF8CDF84E7CE
:1006C00091E028DE82E0D3DE85E490E0B6CF4CE016
:1006D00050E069E370E08CEA90E05FD06CEA70E093
:1006E00083E890E0D6DD91E08130A1F4C150A1F023
:1006F000911114C085E490E00DDE82E0B8DE83E65F
:1007000090E008DE85E0B3DE84E590E003DE12DEF3
:100710008111DDCF90E0EACF9130E9F581E0A7DEED
:1007200086E290E0F7DD2BDE83EA91E0F3DD81E005
:100730009EDE89E991E0EEDD84E790E0E0DD80E88F
:1007400091E0E8DD81E093DE83E890E0D8DD8AEF98
:1007500090E0E0DD80E690E0D2DD83EF90E0DADD4E
:100760008AE690E0CCDD8BE091E0D4DD8AE690E093
:10077000C6DD89E091E0CEDD80E690E0C0DD86E078
:1007800091E0C8DD81E073DE8AE17BDD85E06FDE2C
:1007900085E490E0BFDD8AE052CFFB01DC0102C0BE
:1007A00005900D9241505040D8F70895F894FFCF2E
:1007B00031323334353637383930313233343536F7
:1007C00037383930313233343536373839303132E1
:1007D00033343531323334353637383930313233DA
:1007E00034353637383930313233343536373839B5
:0C07F000303132333435363738393000C0
:00000001FF
