:1000000014C1EDC22BC12AC129C128C127C126C1F3
:1000100025C124C123C122C121C120C11FC11EC1CC
:100020001DC11CC11BC141542B43495047534D4C6A
:100030004F433D312C310D0A002B53415042523A6F
:1000400020312C310041542B53415042523D302C31
:10005000310D0A0041542B53415042523D322C3154
:100060000D0A0041542B53415042523D312C310D69
:100070000A0041542B53415042523D332C312C2223
:10008000505744222C22696E7465726E6574220D7D
:100090000A0041542B53415042523D332C312C2203
:1000A00055534552222C22696E7465726E65742216
:1000B0000D0A0041542B53415042523D332C312CF8
:1000C0002241504E222C22696E7465726E65742234
:1000D0000D0A0041542B53415042523D332C312CD8
:1000E00022434F4E54595045222C224750525322FE
:1000F0000D0A00204C4154543D00205554430A2021
:100100004C4F4E473D000D0A002C000D0A2068742C
:1001100074703A2F2F6D6170732E676F6F676C6507
:100120002E636F6D2F6D6170733F713D0041542BD5
:10013000434E45544C494748543D300D0A00415404
:1001400026570D0A0041542B4950523D3936303064
:100150000D0A0041542B4353434C4B3D300D0A00D4
:1001600041542B4353434C4B3D320D0A0041542B19
:10017000434C49503D310D0A00220A0D0041542BD9
:10018000434D4744413D2244454C20414C4C220DB7
:100190000A0041542B434D47533D220041542B4309
:1001A0004D47463D310D0A004154480A0D00415467
:1001B0002B43464752493D310A0D0041542B4350D1
:1001C000494E3D2231313131220A0D004154453032
:1001D0000A0D0041542B4350494E3F0A0D002B435A
:1001E00050494E3A2053494D2050494E002B435020
:1001F000494E3A2052454144590041542B435245FF
:10020000473F0A0D002B435245473A20302C35001A
:100210002B435245473A20302C310052494E47007B
:100220004F4B00202041540A0D0011241FBECFED7A
:10023000CDBF10E0A0E6B0E0EEEAF7E002C0059026
:100240000D92AC3AB107D9F710E0ACEAB0E001C0CA
:100250001D92A43CB107E1F7CDD1A7C2D1CE12B80F
:1002600083E389B988E18AB986E083B908955D9B03
:10027000FECF8CB908955F9BFECF8CB10895CF93CC
:10028000DF93AC01DC0190E020E03D91FB01E90F40
:10029000F11D8081381320C090E0892F820FFA0170
:1002A000E80FF11D3081C92FD0E031110BC0FB01E7
:1002B00001900020E9F73197E61BF70BCE17DF0717
:1002C00059F40FC0FB01EC0FFD1F8081882379F3E7
:1002D0003813EDCF9F5FE1CF2F5F2832B1F680E07A
:1002E00001C081E0DF91CF910895CF93DF93EC01BE
:1002F0008991882311F0BBDFFBCFDF91CF91089567
:10030000CF93DF93EC01CE01FE012491222329F04B
:100310002196FC018491ABDFF6CFDF91CF91089558
:10032000CF93DF931092C300C0E0D0E0A4DF282F6A
:1003300030E02A30310579F02D30310561F0E0915F
:10034000C300F0E0ED57FF4F80838091C3008F5FC3
:100350008093C3000FC08091C300882359F0E091BF
:10036000C300F0E0ED57FF4F10821092C30081E010
:1003700090E002C080E090E02196892BB9F28C2FAA
:100380008150DF91CF9108951092C0001092C1006A
:100390001092C30070DF8C32E9F76DDFE091C0008E
:1003A000F0E0E05AFF4F80839091C0009F5F9093F0
:1003B000C0008C3291F7E091C000F0E0E15AFF4FAD
:1003C00010821092C00057DFE091C100F0E0E659C2
:1003D000FF4F80839091C1009F5F9093C1008C324A
:1003E00091F7E091C100F0E0E759FF4F10821092C1
:1003F000C10041DF282F30E0E091C300F0E0ED576D
:10040000FF4F80838091C3008F5F8093C3002D30A6
:10041000310519F02A30310561F7E091C300F0E0B1
:10042000EE57FF4F10821092C30025DF81E0089540
:100430001092C20020DF8232E9F71DDFE091C20096
:10044000F0E0EC58FF4F80839091C2009F5F909343
:10045000C200823291F7E091C200F0E0ED58FF4F08
:1004600010821092C20007DF90E08A30910511F0EF
:100470000D97C9F781E00895882359F029E236E9FC
:1004800040E84A95F1F73A95E1F72A95D1F781507E
:10049000F3CF0895CF9383E292E032DF41DF8823E8
:1004A00079F043E050E060E272E08CEA90E074D1D1
:1004B0006CEA70E083E890E0E2DEC1E0813009F0B0
:1004C000C0E081E0D9DFCC2331F382E0D5DF8CECD2
:1004D00091E016DF81E0CF910895CF9382E0CCDFE9
:1004E00083ED91E00DDF1CDF8823C1F34DE050E088
:1004F0006DEE71E08CEA90E04FD16CEA70E083E839
:1005000090E0BDDEC82F4FE050E06EED71E08CEA68
:1005100090E042D16CEA70E083E890E0B0DE813098
:1005200029F48BEB91E0ECDE81E0A6DFC130B1F67F
:1005300081E0CF910895CF9385E09EDF8AEF91E02F
:10054000DFDEEEDE8823C1F34BE050E060E172E0D5
:100550008CEA90E021D16CEA70E083E890E08FDED5
:10056000C82F4BE050E065E072E08CEA90E014D1D7
:100570006CEA70E083E890E082DE813011F0C130F7
:10058000D9F681E0CF91089581E076DF83ED90E0A8
:10059000B7DE81E071DF83EB90E0B2DE81E06CDFFB
:1005A00082E990E0ADDE81E067DF82E790E0A8DEDF
:1005B00081E062DF81E0089585B7806585BF85B7FA
:1005C000806285BF85B78C7F85BF8BB780648BBF0A
:1005D000F8947894889585B78F7D85BF08951F928C
:1005E0000F920FB60F9211241BBE0F900FBE0F90EB
:1005F0001F90189534DE8AE03FDF4CDF82E03CDF5D
:1006000085E491E07DDE82E037DF8EEA91E078DEFE
:1006100082E032DF8EE391E073DE83E02DDF5DDF89
:100620008ADFB2DF82E028DF8DE691E069DE82E0DA
:1006300023DF85E490E064DE82E01EDF8CE991E058
:100640005FDE82E019DF8DE791E05ADE83E014DFA0
:100650008DE291E055DE82E00FDF80E691E050DE32
:1006600082E00ADFA9DF5CDE882341F345E050E049
:100670006BE172E08CEA90E08FD06CEA70E083E886
:1006800090E0FDDD813091F4D3DE83E292E038DE4C
:1006900081E0F2DE83E591E033DE81E0EDDE88EAA1
:1006A00091E02EDE81E0E8DEC3E021C083E292E04B
:1006B00027DE81E0E1DE83E591E022DE81E0DCDE21
:1006C0000CDF39DF61DFB0CF4CE050E069E370E070
:1006D0008CEA90E061D06CEA70E083E890E0CFDDD6
:1006E00091E08130B1F4C150B1F0911116C082E0B7
:1006F000C3DE85E490E004DE82E0BEDE83E690E0C7
:10070000FFDD85E0B9DE84E590E0FADD09DE8111E8
:10071000DBCF90E0E8CF9130E9F581E0ADDE86E215
:1007200090E0EEDD31DE8CE991E0EADD81E0A4DEEF
:1007300082E991E0E5DD84E790E0D7DD89E791E0AB
:10074000DFDD81E099DE83E890E0CFDD8AEF90E0A5
:10075000D7DD80E690E0C9DD83EF90E0D1DD8AE669
:1007600090E0C3DD8BE091E0CBDD8AE690E0BDDD7B
:1007700089E091E0C5DD80E690E0B7DD86E091E0BC
:10078000BFDD81E079DE8AE172DD85E075DE85E43A
:1007900090E0B6DD8AE051CFFB01DC0102C005909C
:0E07A0000D9241505040D8F70895F894FFCFC5
:1007AE0031323334353637383930313233343536F9
:1007BE0037383930313233343536373839303132E3
:1007CE0033343531323334353637383930313233DC
:1007DE0034353637383930313233343536373839B7
:0C07EE00303132333435363738393000C2
:00000001FF
